{
  "address": "0x240a641e7Ed193E7E5f0D2353dB419B0910ad12E",
  "abi": [
    {
      "constant": false,
      "inputs": [],
      "name": "collectRewardToken",
      "outputs": [],
      "payable": false,
      "stateMutability": "nonpayable",
      "type": "function"
    },
    {
      "constant": true,
      "inputs": [],
      "name": "governor",
      "outputs": [
        {
          "internalType": "address",
          "name": "",
          "type": "address"
        }
      ],
      "payable": false,
      "stateMutability": "view",
      "type": "function"
    },
    {
      "constant": false,
      "inputs": [
        {
          "internalType": "address",
          "name": "_asset",
          "type": "address"
        },
        {
          "internalType": "address",
          "name": "_pToken",
          "type": "address"
        }
      ],
      "name": "setPTokenAddress",
      "outputs": [],
      "payable": false,
      "stateMutability": "nonpayable",
      "type": "function"
    },
    {
      "constant": true,
      "inputs": [
        {
          "internalType": "address",
          "name": "",
          "type": "address"
        }
      ],
      "name": "assetToPToken",
      "outputs": [
        {
          "internalType": "address",
          "name": "",
          "type": "address"
        }
      ],
      "payable": false,
      "stateMutability": "view",
      "type": "function"
    },
    {
      "constant": false,
      "inputs": [
        {
          "internalType": "address",
          "name": "_asset",
          "type": "address"
        },
        {
          "internalType": "uint256",
          "name": "_amount",
          "type": "uint256"
        }
      ],
      "name": "transferToken",
      "outputs": [],
      "payable": false,
      "stateMutability": "nonpayable",
      "type": "function"
    },
    {
      "constant": true,
      "inputs": [],
      "name": "rewardTokenAddress",
      "outputs": [
        {
          "internalType": "address",
          "name": "",
          "type": "address"
        }
      ],
      "payable": false,
      "stateMutability": "view",
      "type": "function"
    },
    {
      "constant": true,
      "inputs": [
        {
          "internalType": "address",
          "name": "",
          "type": "address"
        }
      ],
      "name": "rewardsLpPair",
      "outputs": [
        {
          "internalType": "address",
          "name": "",
          "type": "address"
        }
      ],
      "payable": false,
      "stateMutability": "view",
      "type": "function"
    },
    {
      "constant": false,
      "inputs": [
        {
          "internalType": "address",
          "name": "_token1",
          "type": "address"
        },
        {
          "internalType": "address",
          "name": "_token2",
          "type": "address"
        }
      ],
      "name": "setRewardLpPair",
      "outputs": [],
      "payable": false,
      "stateMutability": "nonpayable",
      "type": "function"
    },
    {
      "constant": true,
      "inputs": [],
      "name": "vaultAddress",
      "outputs": [
        {
          "internalType": "address",
          "name": "",
          "type": "address"
        }
      ],
      "payable": false,
      "stateMutability": "view",
      "type": "function"
    },
    {
      "constant": false,
      "inputs": [
        {
          "internalType": "address",
          "name": "_asset",
          "type": "address"
        },
        {
          "internalType": "uint256",
          "name": "_amount",
          "type": "uint256"
        }
      ],
      "name": "deposit",
      "outputs": [],
      "payable": false,
      "stateMutability": "nonpayable",
      "type": "function"
    },
    {
      "constant": true,
      "inputs": [],
      "name": "rewardLiquidationThreshold",
      "outputs": [
        {
          "internalType": "uint256",
          "name": "",
          "type": "uint256"
        }
      ],
      "payable": false,
      "stateMutability": "view",
      "type": "function"
    },
    {
      "constant": true,
      "inputs": [],
      "name": "uniswapRouterV2",
      "outputs": [
        {
          "internalType": "address",
          "name": "",
          "type": "address"
        }
      ],
      "payable": false,
      "stateMutability": "view",
      "type": "function"
    },
    {
      "constant": false,
      "inputs": [],
      "name": "claimGovernance",
      "outputs": [],
      "payable": false,
      "stateMutability": "nonpayable",
      "type": "function"
    },
    {
      "constant": true,
      "inputs": [
        {
          "internalType": "address",
          "name": "_asset",
          "type": "address"
        }
      ],
      "name": "checkBalance",
      "outputs": [
        {
          "internalType": "uint256",
          "name": "balance",
          "type": "uint256"
        }
      ],
      "payable": false,
      "stateMutability": "view",
      "type": "function"
    },
    {
      "constant": false,
      "inputs": [
        {
          "internalType": "address",
          "name": "_uni",
          "type": "address"
        }
      ],
      "name": "setUniswapAddress",
      "outputs": [],
      "payable": false,
      "stateMutability": "nonpayable",
      "type": "function"
    },
    {
      "constant": false,
      "inputs": [
        {
          "internalType": "address",
          "name": "_platformAddress",
          "type": "address"
        },
        {
          "internalType": "address",
          "name": "_vaultAddress",
          "type": "address"
        },
        {
          "internalType": "address",
          "name": "_rewardTokenAddress",
          "type": "address"
        },
        {
          "internalType": "address[]",
          "name": "_assets",
          "type": "address[]"
        },
        {
          "internalType": "address[]",
          "name": "_pTokens",
          "type": "address[]"
        }
      ],
      "name": "initialize",
      "outputs": [],
      "payable": false,
      "stateMutability": "nonpayable",
      "type": "function"
    },
    {
      "constant": false,
      "inputs": [],
      "name": "withdrawAll",
      "outputs": [],
      "payable": false,
      "stateMutability": "nonpayable",
      "type": "function"
    },
    {
      "constant": false,
      "inputs": [
        {
          "internalType": "uint256",
          "name": "_assetIndex",
          "type": "uint256"
        }
      ],
      "name": "removePToken",
      "outputs": [],
      "payable": false,
      "stateMutability": "nonpayable",
      "type": "function"
    },
    {
      "constant": false,
      "inputs": [
        {
          "internalType": "address",
          "name": "_rewardTokenAddress",
          "type": "address"
        }
      ],
      "name": "setRewardTokenAddress",
      "outputs": [],
      "payable": false,
      "stateMutability": "nonpayable",
      "type": "function"
    },
    {
      "constant": true,
      "inputs": [
        {
          "internalType": "address",
          "name": "_asset",
          "type": "address"
        }
      ],
      "name": "supportsAsset",
      "outputs": [
        {
          "internalType": "bool",
          "name": "",
          "type": "bool"
        }
      ],
      "payable": false,
      "stateMutability": "view",
      "type": "function"
    },
    {
      "constant": false,
      "inputs": [],
      "name": "safeApproveAllTokens",
      "outputs": [],
      "payable": false,
      "stateMutability": "nonpayable",
      "type": "function"
    },
    {
      "constant": true,
      "inputs": [
        {
          "internalType": "address",
          "name": "",
          "type": "address"
        }
      ],
      "name": "lpTokens",
      "outputs": [
        {
          "internalType": "address",
          "name": "",
          "type": "address"
        }
      ],
      "payable": false,
      "stateMutability": "view",
      "type": "function"
    },
    {
      "constant": true,
      "inputs": [],
      "name": "isGovernor",
      "outputs": [
        {
          "internalType": "bool",
          "name": "",
          "type": "bool"
        }
      ],
      "payable": false,
      "stateMutability": "view",
      "type": "function"
    },
    {
      "constant": false,
      "inputs": [
        {
          "internalType": "uint256",
          "name": "_threshold",
          "type": "uint256"
        }
      ],
      "name": "setRewardLiquidationThreshold",
      "outputs": [],
      "payable": false,
      "stateMutability": "nonpayable",
      "type": "function"
    },
    {
      "constant": false,
      "inputs": [
        {
          "internalType": "address",
          "name": "_newGovernor",
          "type": "address"
        }
      ],
      "name": "transferGovernance",
      "outputs": [],
      "payable": false,
      "stateMutability": "nonpayable",
      "type": "function"
    },
    {
      "constant": true,
      "inputs": [],
      "name": "stakingAddress",
      "outputs": [
        {
          "internalType": "address",
          "name": "",
          "type": "address"
        }
      ],
      "payable": false,
      "stateMutability": "view",
      "type": "function"
    },
    {
      "constant": false,
      "inputs": [
        {
          "internalType": "address",
          "name": "_recipient",
          "type": "address"
        },
        {
          "internalType": "address",
          "name": "_asset",
          "type": "address"
        },
        {
          "internalType": "uint256",
          "name": "_amount",
          "type": "uint256"
        }
      ],
      "name": "withdraw",
      "outputs": [],
      "payable": false,
      "stateMutability": "nonpayable",
      "type": "function"
    },
    {
      "constant": true,
      "inputs": [],
      "name": "platformAddress",
      "outputs": [
        {
          "internalType": "address",
          "name": "",
          "type": "address"
        }
      ],
      "payable": false,
      "stateMutability": "view",
      "type": "function"
    },
    {
      "constant": false,
      "inputs": [],
      "name": "depositAll",
      "outputs": [],
      "payable": false,
      "stateMutability": "nonpayable",
      "type": "function"
    },
    {
      "constant": false,
      "inputs": [
        {
          "internalType": "address",
          "name": "_staking",
          "type": "address"
        }
      ],
      "name": "setStakingAddress",
      "outputs": [],
      "payable": false,
      "stateMutability": "nonpayable",
      "type": "function"
    },
    {
      "anonymous": false,
      "inputs": [
        {
          "indexed": true,
          "internalType": "address",
          "name": "_asset",
          "type": "address"
        },
        {
          "indexed": false,
          "internalType": "address",
          "name": "_pToken",
          "type": "address"
        }
      ],
      "name": "PTokenAdded",
      "type": "event"
    },
    {
      "anonymous": false,
      "inputs": [
        {
          "indexed": true,
          "internalType": "address",
          "name": "_asset",
          "type": "address"
        },
        {
          "indexed": false,
          "internalType": "address",
          "name": "_pToken",
          "type": "address"
        }
      ],
      "name": "PTokenRemoved",
      "type": "event"
    },
    {
      "anonymous": false,
      "inputs": [
        {
          "indexed": true,
          "internalType": "address",
          "name": "_asset",
          "type": "address"
        },
        {
          "indexed": false,
          "internalType": "address",
          "name": "_pToken",
          "type": "address"
        },
        {
          "indexed": false,
          "internalType": "uint256",
          "name": "_amount",
          "type": "uint256"
        }
      ],
      "name": "Deposit",
      "type": "event"
    },
    {
      "anonymous": false,
      "inputs": [
        {
          "indexed": true,
          "internalType": "address",
          "name": "_asset",
          "type": "address"
        },
        {
          "indexed": false,
          "internalType": "address",
          "name": "_pToken",
          "type": "address"
        },
        {
          "indexed": false,
          "internalType": "uint256",
          "name": "_amount",
          "type": "uint256"
        }
      ],
      "name": "Withdrawal",
      "type": "event"
    },
    {
      "anonymous": false,
      "inputs": [
        {
          "indexed": false,
          "internalType": "address",
          "name": "recipient",
          "type": "address"
        },
        {
          "indexed": false,
          "internalType": "uint256",
          "name": "amount",
          "type": "uint256"
        }
      ],
      "name": "RewardTokenCollected",
      "type": "event"
    },
    {
      "anonymous": false,
      "inputs": [
        {
          "indexed": true,
          "internalType": "address",
          "name": "previousGovernor",
          "type": "address"
        },
        {
          "indexed": true,
          "internalType": "address",
          "name": "newGovernor",
          "type": "address"
        }
      ],
      "name": "PendingGovernorshipTransfer",
      "type": "event"
    },
    {
      "anonymous": false,
      "inputs": [
        {
          "indexed": true,
          "internalType": "address",
          "name": "previousGovernor",
          "type": "address"
        },
        {
          "indexed": true,
          "internalType": "address",
          "name": "newGovernor",
          "type": "address"
        }
      ],
      "name": "GovernorshipTransferred",
      "type": "event"
    }
  ],
  "transactionHash": "0xf2265528dd393db6b3f7813646514c6f6afd896d1108f6d17e93b155d1df7a9b",
  "args": [],
  "solcInputHash": "a361d02ba9271b73a633ef727a1ec95a",
  "bytecode": "0x6080604052603980546001600160a01b031990811673e3d8bd6aed4f159bc8000a9cd47cffdb95f9612117909155603a805490911690556200004a336001600160e01b03620000a316565b6200005d6001600160e01b03620000b616565b6001600160a01b031660006001600160a01b03167fc7c0c772add429241571afb3805861fb3cfa2af374534088b76cdb4325a87e9a60405160405180910390a3620000ca565b6000805160206200330683398151915255565b600080516020620033068339815191525490565b61322c80620000da6000396000f3fe608060405234801561001057600080fd5b50600436106101da5760003560e01c8063790fcf9f11610104578063c7af3352116100a2578063d9caed1211610071578063d9caed121461057c578063dbe55e56146105b2578063de5f6268146105ba578063f4e0d9ac146105c2576101da565b8063c7af335214610529578063cd3b021214610531578063d38bfff41461054e578063d7b4be2414610574576101da565b80639a6acf20116100de5780639a6acf201461049b578063aa388af6146104c1578063ad1728cb146104fb578063b17b658d14610503576101da565b8063790fcf9f14610393578063853828b6146104765780639136616a1461047e576101da565b8063341ad2bf1161017c578063596fa9e31161014b578063596fa9e3146103375780635d36b1901461033f5780635f515226146103475780637884e7c61461036d576101da565b8063341ad2bf146102bb578063430bf08a146102e957806347e7ef24146102f15780635653b4141461031d576101da565b80630fc3b4c4116101b85780630fc3b4c41461023b5780631072cbea14610261578063125f9e331461028d57806315e67e4914610295576101da565b80630242241d146101df5780630c340a24146101e95780630ed57b3a1461020d575b600080fd5b6101e76105e8565b005b6101f16107ec565b604080516001600160a01b039092168252519081900360200190f35b6101e76004803603604081101561022357600080fd5b506001600160a01b03813581169160200135166107fb565b6101f16004803603602081101561025157600080fd5b50356001600160a01b0316610850565b6101e76004803603604081101561027757600080fd5b506001600160a01b03813516906020013561086b565b6101f16108d4565b6101f1600480360360208110156102ab57600080fd5b50356001600160a01b03166108e3565b6101e7600480360360408110156102d157600080fd5b506001600160a01b03813581169160200135166108fe565b6101f1610bdd565b6101e76004803603604081101561030757600080fd5b506001600160a01b038135169060200135610bec565b610325610cb4565b60408051918252519081900360200190f35b6101f1610cba565b6101e7610cc9565b6103256004803603602081101561035d57600080fd5b50356001600160a01b0316610d2b565b6101e76004803603602081101561038357600080fd5b50356001600160a01b0316610db4565b6101e7600480360360a08110156103a957600080fd5b6001600160a01b03823581169260208101358216926040820135909216918101906080810160608201356401000000008111156103e557600080fd5b8201836020820111156103f757600080fd5b8035906020019184602083028401116401000000008311171561041957600080fd5b91939092909160208101903564010000000081111561043757600080fd5b82018360208201111561044957600080fd5b8035906020019184602083028401116401000000008311171561046b57600080fd5b509092509050610e1d565b6101e7610f7d565b6101e76004803603602081101561049457600080fd5b5035611286565b6101e7600480360360208110156104b157600080fd5b50356001600160a01b0316611451565b6104e7600480360360208110156104d757600080fd5b50356001600160a01b03166114ba565b604080519115158252519081900360200190f35b6101e76114da565b6101f16004803603602081101561051957600080fd5b50356001600160a01b03166115f4565b6104e761160f565b6101e76004803603602081101561054757600080fd5b5035611632565b6101e76004803603602081101561056457600080fd5b50356001600160a01b031661167e565b6101f1611718565b6101e76004803603606081101561059257600080fd5b506001600160a01b03813581169160208101359091169060400135611727565b6101f16119fb565b6101e7611a0a565b6101e7600480360360208110156105d857600080fd5b50356001600160a01b0316611b92565b6034546001600160a01b03163314610641576040805162461bcd60e51b815260206004820152601760248201527610d85b1b195c881a5cc81b9bdd081d1a194815985d5b1d604a1b604482015290519081900360640190fd5b6000805160206130d983398151915280546002811415610699576040805162461bcd60e51b815260206004820152600e60248201526d1499595b9d1c985b9d0818d85b1b60921b604482015290519081900360640190fd5b60028255603a5460408051631e8c5c8960e11b815290516001600160a01b03909216918291633d18b91291600480830192600092919082900301818387803b1580156106e457600080fd5b505af11580156106f8573d6000803e3d6000fd5b5050603754604080516370a0823160e01b815230600482015290516001600160a01b0390921693506000925083916370a0823191602480820192602092909190829003018186803b15801561074c57600080fd5b505afa158015610760573d6000803e3d6000fd5b505050506040513d602081101561077657600080fd5b5051603454604080516001600160a01b0390921682526020820183905280519293507f9b15fe06f6132479e0c4d9dfbbff1de507a47663a459b2cc4ba1aa5a55e5205892918290030190a16034546107e1906001600160a01b0384811691168363ffffffff611bfb16565b505050600182555050565b60006107f6611c52565b905090565b61080361160f565b610842576040805162461bcd60e51b815260206004820152601a60248201526000805160206130f9833981519152604482015290519081900360640190fd5b61084c8282611c77565b5050565b6035602052600090815260409020546001600160a01b031681565b61087361160f565b6108b2576040805162461bcd60e51b815260206004820152601a60248201526000805160206130f9833981519152604482015290519081900360640190fd5b61084c6108bd6107ec565b6001600160a01b038416908363ffffffff611bfb16565b6037546001600160a01b031681565b603b602052600090815260409020546001600160a01b031681565b61090661160f565b610945576040805162461bcd60e51b815260206004820152601a60248201526000805160206130f9833981519152604482015290519081900360640190fd5b6039546040805163c45a015560e01b815290516000926001600160a01b03169163c45a0155916004808301926020929190829003018186803b15801561098a57600080fd5b505afa15801561099e573d6000803e3d6000fd5b505050506040513d60208110156109b457600080fd5b5051905060006001600160a01b03821663e6a439056109d286611de6565b6109db86611de6565b6040518363ffffffff1660e01b815260040180836001600160a01b03166001600160a01b03168152602001826001600160a01b03166001600160a01b031681526020019250505060206040518083038186803b158015610a3a57600080fd5b505afa158015610a4e573d6000803e3d6000fd5b505050506040513d6020811015610a6457600080fd5b5051603a546040805163095ea7b360e01b81526001600160a01b03928316600482015260006024820181905291519394509184169263095ea7b3926044808201936020939283900390910190829087803b158015610ac157600080fd5b505af1158015610ad5573d6000803e3d6000fd5b505050506040513d6020811015610aeb57600080fd5b5050603a546040805163095ea7b360e01b81526001600160a01b039283166004820152600019602482015290519183169163095ea7b3916044808201926020929091908290030181600087803b158015610b4457600080fd5b505af1158015610b58573d6000803e3d6000fd5b505050506040513d6020811015610b6e57600080fd5b50506001600160a01b039384166000818152603b6020908152604080832080549789166001600160a01b031998891681179091558084528184208054891686179055938352603c9091528082208054949097169386168417909655908152939093208054909216909217905550565b6034546001600160a01b031681565b6034546001600160a01b03163314610c45576040805162461bcd60e51b815260206004820152601760248201527610d85b1b195c881a5cc81b9bdd081d1a194815985d5b1d604a1b604482015290519081900360640190fd5b6000805160206130d983398151915280546002811415610c9d576040805162461bcd60e51b815260206004820152600e60248201526d1499595b9d1c985b9d0818d85b1b60921b604482015290519081900360640190fd5b60028255610cab8484611e53565b50600190555050565b60385481565b6039546001600160a01b031681565b610cd1611f96565b6001600160a01b0316336001600160a01b031614610d205760405162461bcd60e51b81526004018080602001828103825260308152602001806131c86030913960400191505060405180910390fd5b610d2933611fbb565b565b600080610d3783611de6565b604080516370a0823160e01b815230600482015290519192506001600160a01b038316916370a0823191602480820192602092909190829003018186803b158015610d8157600080fd5b505afa158015610d95573d6000803e3d6000fd5b505050506040513d6020811015610dab57600080fd5b50519392505050565b610dbc61160f565b610dfb576040805162461bcd60e51b815260206004820152601a60248201526000805160206130f9833981519152604482015290519081900360640190fd5b603980546001600160a01b0319166001600160a01b0392909216919091179055565b610e2561160f565b610e64576040805162461bcd60e51b815260206004820152601a60248201526000805160206130f9833981519152604482015290519081900360640190fd5b600054610100900460ff1680610e7d5750610e7d612069565b80610e8b575060005460ff16155b610ec65760405162461bcd60e51b815260040180806020018281038252602e81526020018061313a602e913960400191505060405180910390fd5b600054610100900460ff16158015610ef1576000805460ff1961ff0019909116610100171660011790555b610f6188888888888080602002602001604051908101604052809392919081815260200183836020028082843760009201919091525050604080516020808c0282810182019093528b82529093508b92508a91829185019084908082843760009201919091525061206f92505050565b8015610f73576000805461ff00191690555b5050505050505050565b6034546001600160a01b0316331480610fae5750610f996107ec565b6001600160a01b0316336001600160a01b0316145b610fe95760405162461bcd60e51b81526004018080602001828103825260238152602001806130b66023913960400191505060405180910390fd5b6000805160206130d983398151915280546002811415611041576040805162461bcd60e51b815260206004820152600e60248201526d1499595b9d1c985b9d0818d85b1b60921b604482015290519081900360640190fd5b6002825560005b60365481101561127e57603a546001600160a01b0316156110b75761108d6036828154811061107357fe5b6000918252602090912001546001600160a01b0316612146565b6110b76036828154811061109d57fe5b6000918252602090912001546001600160a01b0316612222565b60006110e3603683815481106110c957fe5b6000918252602090912001546001600160a01b0316611de6565b604080516370a0823160e01b815230600482015290519192506000916001600160a01b038416916370a08231916024808301926020929190829003018186803b15801561112f57600080fd5b505afa158015611143573d6000803e3d6000fd5b505050506040513d602081101561115957600080fd5b50519050801561127457816001600160a01b031663db006a75826040518263ffffffff1660e01b815260040180828152602001915050600060405180830381600087803b1580156111a957600080fd5b505af11580156111bd573d6000803e3d6000fd5b505050506000603684815481106111d057fe5b60009182526020918290200154603454604080516370a0823160e01b815230600482015290516001600160a01b03938416955061127294929093169285926370a082319260248082019391829003018186803b15801561122f57600080fd5b505afa158015611243573d6000803e3d6000fd5b505050506040513d602081101561125957600080fd5b50516001600160a01b038416919063ffffffff611bfb16565b505b5050600101611048565b505060019055565b61128e61160f565b6112cd576040805162461bcd60e51b815260206004820152601a60248201526000805160206130f9833981519152604482015290519081900360640190fd5b6036548110611313576040805162461bcd60e51b815260206004820152600d60248201526c092dcecc2d8d2c840d2dcc8caf609b1b604482015290519081900360640190fd5b60006036828154811061132257fe5b60009182526020808320909101546001600160a01b03908116808452603590925260409092205460365491935090911690600019018310156113c55760368054600019810190811061137057fe5b600091825260209091200154603680546001600160a01b03909216918590811061139657fe5b9060005260206000200160006101000a8154816001600160a01b0302191690836001600160a01b031602179055505b60368054806113d057fe5b60008281526020808220830160001990810180546001600160a01b031990811690915593019093556001600160a01b0385811680835260358552604092839020805490941690935581519085168152905191927f16b7600acff27e39a8a96056b3d533045298de927507f5c1d97e4accde60488c92918290030190a2505050565b61145961160f565b611498576040805162461bcd60e51b815260206004820152601a60248201526000805160206130f9833981519152604482015290519081900360640190fd5b603780546001600160a01b0319166001600160a01b0392909216919091179055565b6001600160a01b0390811660009081526035602052604090205416151590565b6114e261160f565b611521576040805162461bcd60e51b815260206004820152601a60248201526000805160206130f9833981519152604482015290519081900360640190fd5b6000805160206130d983398151915280546002811415611579576040805162461bcd60e51b815260206004820152600e60248201526d1499595b9d1c985b9d0818d85b1b60921b604482015290519081900360640190fd5b60028255603654600061158a61239f565b905060005b828110156107e1576000603682815481106115a657fe5b60009182526020822001546001600160a01b031691506115cf908290859063ffffffff61247916565b6115eb6001600160a01b0382168460001963ffffffff61247916565b5060010161158f565b603c602052600090815260409020546001600160a01b031681565b6000611619611c52565b6001600160a01b0316336001600160a01b031614905090565b61163a61160f565b611679576040805162461bcd60e51b815260206004820152601a60248201526000805160206130f9833981519152604482015290519081900360640190fd5b603855565b61168661160f565b6116c5576040805162461bcd60e51b815260206004820152601a60248201526000805160206130f9833981519152604482015290519081900360640190fd5b6116ce8161258c565b806001600160a01b03166116e0611c52565b6001600160a01b03167fa39cc5eb22d0f34d8beaefee8a3f17cc229c1a1d1ef87a5ad47313487b1c4f0d60405160405180910390a350565b603a546001600160a01b031681565b6034546001600160a01b03163314611780576040805162461bcd60e51b815260206004820152601760248201527610d85b1b195c881a5cc81b9bdd081d1a194815985d5b1d604a1b604482015290519081900360640190fd5b6000805160206130d9833981519152805460028114156117d8576040805162461bcd60e51b815260206004820152600e60248201526d1499595b9d1c985b9d0818d85b1b60921b604482015290519081900360640190fd5b6002825560008311611831576040805162461bcd60e51b815260206004820152601760248201527f4d75737420776974686472617720736f6d657468696e67000000000000000000604482015290519081900360640190fd5b6001600160a01b038516611885576040805162461bcd60e51b8152602060048201526016602482015275135d5cdd081cdc1958da599e481c9958da5c1a595b9d60521b604482015290519081900360640190fd5b600061189085611de6565b603a549091506001600160a01b0316158015906119205750604080516370a0823160e01b8152306004820152905185916001600160a01b038416916370a0823191602480820192602092909190829003018186803b1580156118f157600080fd5b505afa158015611905573d6000803e3d6000fd5b505050506040513d602081101561191b57600080fd5b505111155b156119375761192e85612146565b61193785612222565b604080516001600160a01b038381168252602082018790528251908816927f2717ead6b9200dd235aad468c9809ea400fe33ac69b5bfaa6d3e90fc922b6398928290030190a2806001600160a01b031663db006a75856040518263ffffffff1660e01b815260040180828152602001915050600060405180830381600087803b1580156119c357600080fd5b505af11580156119d7573d6000803e3d6000fd5b506119f0925050506001600160a01b0386168786611bfb565b505060019055505050565b6033546001600160a01b031681565b6034546001600160a01b03163314611a63576040805162461bcd60e51b815260206004820152601760248201527610d85b1b195c881a5cc81b9bdd081d1a194815985d5b1d604a1b604482015290519081900360640190fd5b6000805160206130d983398151915280546002811415611abb576040805162461bcd60e51b815260206004820152600e60248201526d1499595b9d1c985b9d0818d85b1b60921b604482015290519081900360640190fd5b6002825560005b60365481101561127e57600060368281548110611adb57fe5b60009182526020918290200154604080516370a0823160e01b815230600482015290516001600160a01b03909216926370a0823192602480840193829003018186803b158015611b2a57600080fd5b505afa158015611b3e573d6000803e3d6000fd5b505050506040513d6020811015611b5457600080fd5b505190508015611b8957611b8960368381548110611b6e57fe5b6000918252602090912001546001600160a01b031682611e53565b50600101611ac2565b611b9a61160f565b611bd9576040805162461bcd60e51b815260206004820152601a60248201526000805160206130f9833981519152604482015290519081900360640190fd5b603a80546001600160a01b0319166001600160a01b0392909216919091179055565b604080516001600160a01b038416602482015260448082018490528251808303909101815260649091019091526020810180516001600160e01b031663a9059cbb60e01b179052611c4d9084906125b0565b505050565b7f7bea13895fa79d2831e0a9e28edede30099005a50d652d8957cf8a607ee6ca4a5490565b6001600160a01b038281166000908152603560205260409020541615611cd9576040805162461bcd60e51b81526020600482015260126024820152711c151bdad95b88185b1c9958591e481cd95d60721b604482015290519081900360640190fd5b6001600160a01b03821615801590611cf957506001600160a01b03811615155b611d3e576040805162461bcd60e51b8152602060048201526011602482015270496e76616c69642061646472657373657360781b604482015290519081900360640190fd5b6001600160a01b03808316600081815260356020908152604080832080549587166001600160a01b031996871681179091556036805460018101825594527f4a11f94e20a93c79f6ec743a1954ec4fc2c08429ae2122118bf234b2185c81b8909301805490951684179094558351918252925191927fef6485b84315f9b1483beffa32aae9a0596890395e3d7521f1c5fbb51790e76592918290030190a261084c828261276e565b6001600160a01b0380821660009081526035602052604081205490911680611e4d576040805162461bcd60e51b815260206004820152601560248201527418551bdad95b88191bd95cc81b9bdd08195e1a5cdd605a1b604482015290519081900360640190fd5b92915050565b60008111611ea1576040805162461bcd60e51b81526020600482015260166024820152754d757374206465706f73697420736f6d657468696e6760501b604482015290519081900360640190fd5b6000611eac83611de6565b604080516001600160a01b0380841682526020820186905282519394508616927f5548c837ab068cf56a2c2479df0882a4922fd203edb7517321831d95078c5f62929181900390910190a2611eff6127b1565b60408051636968703360e11b81526001600160a01b03868116600483015260248201869052605c60448301529151929091169163d2d0e0669160648082019260009290919082900301818387803b158015611f5957600080fd5b505af1158015611f6d573d6000803e3d6000fd5b5050603a546001600160a01b0316159150611c4d905057611f8d8361288b565b611c4d83612dd1565b7f44c4d30b2eaad5130ad70c3ba6972730566f3e6359ab83e800d905c61b1c51db5490565b6001600160a01b038116612016576040805162461bcd60e51b815260206004820152601a60248201527f4e657720476f7665726e6f722069732061646472657373283029000000000000604482015290519081900360640190fd5b806001600160a01b0316612028611c52565b6001600160a01b03167fc7c0c772add429241571afb3805861fb3cfa2af374534088b76cdb4325a87e9a60405160405180910390a361206681612ebc565b50565b303b1590565b603380546001600160a01b038088166001600160a01b0319928316179092556034805487841690831617905560378054928616929091169190911790558151815181146120fa576040805162461bcd60e51b8152602060048201526014602482015273496e76616c696420696e7075742061727261797360601b604482015290519081900360640190fd5b60005b8181101561213d5761213584828151811061211457fe5b602002602001015184838151811061212857fe5b6020026020010151611c77565b6001016120fd565b50505050505050565b603a54604080516370a0823160e01b815230600482015290516001600160a01b039092169160009183916370a0823191602480820192602092909190829003018186803b15801561219657600080fd5b505afa1580156121aa573d6000803e3d6000fd5b505050506040513d60208110156121c057600080fd5b505160408051632e1a7d4d60e01b81526004810183905290519192506001600160a01b03841691632e1a7d4d9160248082019260009290919082900301818387803b15801561220e57600080fd5b505af115801561213d573d6000803e3d6000fd5b6001600160a01b038082166000908152603b6020908152604080832054603c90925282205490831692169061225684611de6565b9050600061226384611de6565b603954604080516370a0823160e01b815230600482015290519293506001600160a01b0391821692839263baa2abde92879287928a16916370a08231916024808301926020929190829003018186803b1580156122bf57600080fd5b505afa1580156122d3573d6000803e3d6000fd5b505050506040513d60208110156122e957600080fd5b5051600080306123014261070863ffffffff612ee016565b604080516001600160e01b031960e08b901b1681526001600160a01b039889166004820152968816602488015260448701959095526064860193909352608485019190915290931660a483015260c4820192909252815160e480830193928290030181600087803b15801561237557600080fd5b505af1158015612389573d6000803e3d6000fd5b505050506040513d6040811015610f7357600080fd5b600080603360009054906101000a90046001600160a01b03166001600160a01b031663ed6ff7606040518163ffffffff1660e01b815260040160206040518083038186803b1580156123f057600080fd5b505afa158015612404573d6000803e3d6000fd5b505050506040513d602081101561241a57600080fd5b505190506001600160a01b0381166107f6576040805162461bcd60e51b815260206004820181905260248201527f4c656e64696e6720706f6f6c20636f726520646f6573206e6f74206578697374604482015290519081900360640190fd5b8015806124ff575060408051636eb1769f60e11b81523060048201526001600160a01b03848116602483015291519185169163dd62ed3e91604480820192602092909190829003018186803b1580156124d157600080fd5b505afa1580156124e5573d6000803e3d6000fd5b505050506040513d60208110156124fb57600080fd5b5051155b61253a5760405162461bcd60e51b81526004018080602001828103825260368152602001806131926036913960400191505060405180910390fd5b604080516001600160a01b038416602482015260448082018490528251808303909101815260649091019091526020810180516001600160e01b031663095ea7b360e01b179052611c4d9084906125b0565b7f44c4d30b2eaad5130ad70c3ba6972730566f3e6359ab83e800d905c61b1c51db55565b6125c2826001600160a01b0316612f41565b612613576040805162461bcd60e51b815260206004820152601f60248201527f5361666545524332303a2063616c6c20746f206e6f6e2d636f6e747261637400604482015290519081900360640190fd5b60006060836001600160a01b0316836040518082805190602001908083835b602083106126515780518252601f199092019160209182019101612632565b6001836020036101000a0380198251168184511680821785525050505050509050019150506000604051808303816000865af19150503d80600081146126b3576040519150601f19603f3d011682016040523d82523d6000602084013e6126b8565b606091505b50915091508161270f576040805162461bcd60e51b815260206004820181905260248201527f5361666545524332303a206c6f772d6c6576656c2063616c6c206661696c6564604482015290519081900360640190fd5b8051156127685780806020019051602081101561272b57600080fd5b50516127685760405162461bcd60e51b815260040180806020018281038252602a815260200180613168602a913960400191505060405180910390fd5b50505050565b600061277861239f565b90506127956001600160a01b03841682600063ffffffff61247916565b611c4d6001600160a01b0384168260001963ffffffff61247916565b600080603360009054906101000a90046001600160a01b03166001600160a01b0316630261bf8b6040518163ffffffff1660e01b815260040160206040518083038186803b15801561280257600080fd5b505afa158015612816573d6000803e3d6000fd5b505050506040513d602081101561282c57600080fd5b505190506001600160a01b0381166107f6576040805162461bcd60e51b815260206004820152601b60248201527f4c656e64696e6720706f6f6c20646f6573206e6f742065786973740000000000604482015290519081900360640190fd5b6001600160a01b038082166000908152603b60209081526040808320546034548251635c4443cf60e11b8152925191861695169392849263b888879e9260048083019392829003018186803b1580156128e357600080fd5b505afa1580156128f7573d6000803e3d6000fd5b505050506040513d602081101561290d57600080fd5b5051604080516315d5220f60e31b81526001600160a01b03878116600483015291519293506000929184169163aea9107891602480820192602092909190829003018186803b15801561295f57600080fd5b505afa158015612973573d6000803e3d6000fd5b505050506040513d602081101561298957600080fd5b5051604080516315d5220f60e31b81526001600160a01b03878116600483015291519293506000929185169163aea9107891602480820192602092909190829003018186803b1580156129db57600080fd5b505afa1580156129ef573d6000803e3d6000fd5b505050506040513d6020811015612a0557600080fd5b505190506000612a3382612a2785670de0b6b3a764000063ffffffff612f7d16565b9063ffffffff612fd616565b90506000612a5384612a2785670de0b6b3a764000063ffffffff612f7d16565b90506000612a6089611de6565b90506000612a6d89611de6565b604080516370a0823160e01b815230600482015290519192506000916001600160a01b038516916370a08231916024808301926020929190829003018186803b158015612ab957600080fd5b505afa158015612acd573d6000803e3d6000fd5b505050506040513d6020811015612ae357600080fd5b5051604080516370a0823160e01b81523060048201529051919250600091612b7d91670de0b6b3a764000091612a27918a916001600160a01b038a16916370a08231916024808301926020929190829003018186803b158015612b4557600080fd5b505afa158015612b59573d6000803e3d6000fd5b505050506040513d6020811015612b6f57600080fd5b50519063ffffffff612f7d16565b604080516370a0823160e01b8152306004820152905191925082916001600160a01b038616916370a08231916024808301926020929190829003018186803b158015612bc857600080fd5b505afa158015612bdc573d6000803e3d6000fd5b505050506040513d6020811015612bf257600080fd5b50511015612ccd57604080516370a0823160e01b815230600482015290516001600160a01b038516916370a08231916024808301926020929190829003018186803b158015612c4057600080fd5b505afa158015612c54573d6000803e3d6000fd5b505050506040513d6020811015612c6a57600080fd5b5051604080516370a0823160e01b81523060048201529051919250612cca91670de0b6b3a764000091612a279189916001600160a01b038916916370a0823191602480820192602092909190829003018186803b158015612b4557600080fd5b91505b6039546001600160a01b03168063e8e337008686868660008030612cf94261070863ffffffff612ee016565b6040518963ffffffff1660e01b815260040180896001600160a01b03166001600160a01b03168152602001886001600160a01b03166001600160a01b03168152602001878152602001868152602001858152602001848152602001836001600160a01b03166001600160a01b0316815260200182815260200198505050505050505050606060405180830381600087803b158015612d9657600080fd5b505af1158015612daa573d6000803e3d6000fd5b505050506040513d6060811015612dc057600080fd5b505050505050505050505050505050565b603a546001600160a01b038281166000908152603c60209081526040918290205482516370a0823160e01b815230600482015292519484169463a694fc3a9491909116926370a08231926024808301939192829003018186803b158015612e3757600080fd5b505afa158015612e4b573d6000803e3d6000fd5b505050506040513d6020811015612e6157600080fd5b5051604080516001600160e01b031960e085901b168152600481019290925251602480830192600092919082900301818387803b158015612ea157600080fd5b505af1158015612eb5573d6000803e3d6000fd5b5050505050565b7f7bea13895fa79d2831e0a9e28edede30099005a50d652d8957cf8a607ee6ca4a55565b600082820183811015612f3a576040805162461bcd60e51b815260206004820152601b60248201527f536166654d6174683a206164646974696f6e206f766572666c6f770000000000604482015290519081900360640190fd5b9392505050565b6000813f7fc5d2460186f7233c927e7db2dcc703c0e500b653ca82273b7bfad8045d85a470818114801590612f7557508115155b949350505050565b600082612f8c57506000611e4d565b82820282848281612f9957fe5b0414612f3a5760405162461bcd60e51b81526004018080602001828103825260218152602001806131196021913960400191505060405180910390fd5b6000612f3a83836040518060400160405280601a81526020017f536166654d6174683a206469766973696f6e206279207a65726f0000000000008152506000818361309f5760405162461bcd60e51b81526004018080602001828103825283818151815260200191508051906020019080838360005b8381101561306457818101518382015260200161304c565b50505050905090810190601f1680156130915780820380516001836020036101000a031916815260200191505b509250505060405180910390fd5b5060008385816130ab57fe5b049594505050505056fe43616c6c6572206973206e6f7420746865205661756c74206f7220476f7665726e6f7253bf423e48ed90e97d02ab0ebab13b2a235a6bfbe9c321847d5c175333ac453543616c6c6572206973206e6f742074686520476f7665726e6f72000000000000536166654d6174683a206d756c7469706c69636174696f6e206f766572666c6f77436f6e747261637420696e7374616e63652068617320616c7265616479206265656e20696e697469616c697a65645361666545524332303a204552433230206f7065726174696f6e20646964206e6f7420737563636565645361666545524332303a20617070726f76652066726f6d206e6f6e2d7a65726f20746f206e6f6e2d7a65726f20616c6c6f77616e63654f6e6c79207468652070656e64696e6720476f7665726e6f722063616e20636f6d706c6574652074686520636c61696da265627a7a723158201386eae04d1d04516888c3dfbe6294a8ebf3fa850895a5a87147f8824965f85864736f6c634300050b00327bea13895fa79d2831e0a9e28edede30099005a50d652d8957cf8a607ee6ca4a",
  "devdoc": {
    "methods": {
      "checkBalance(address)": {
        "details": "Get the total asset value held in the platform",
        "params": {
          "_asset": "Address of the asset"
        },
        "return": "balance    Total value of the asset in the platform"
      },
      "claimGovernance()": {
        "details": "Claim Governance of the contract to a new account (`newGovernor`). Can only be called by the new Governor."
      },
      "collectRewardToken()": {
        "details": "Collect accumulated COMP and send to Vault."
      },
      "deposit(address,uint256)": {
        "details": "Deposit asset into Aave",
        "params": {
          "_amount": "Amount of asset to deposit",
          "_asset": "Address of asset to deposit"
        },
        "return": "amountDeposited Amount of asset that was deposited"
      },
      "depositAll()": {
        "details": "Deposit the entire balance of any supported asset into Aave"
      },
      "governor()": {
        "details": "Returns the address of the current Governor."
      },
      "initialize(address,address,address,address[],address[])": {
        "details": "Internal initialize function, to set up initial internal state",
        "params": {
          "_assets": "Addresses of initial supported assets",
          "_pTokens": "Platform Token corresponding addresses",
          "_platformAddress": "jGeneric platform address",
          "_rewardTokenAddress": "Address of reward token for platform",
          "_vaultAddress": "Address of the Vault"
        }
      },
      "isGovernor()": {
        "details": "Returns true if the caller is the current Governor."
      },
      "removePToken(uint256)": {
        "details": "Remove a supported asset by passing its index.     This method can only be called by the system Governor",
        "params": {
          "_assetIndex": "Index of the asset to be removed"
        }
      },
      "safeApproveAllTokens()": {
        "details": "Approve the spending of all assets by their corresponding aToken,     if for some reason is it necessary."
      },
      "setPTokenAddress(address,address)": {
        "details": "Provide support for asset by passing its pToken address.     This method can only be called by the system Governor",
        "params": {
          "_asset": "Address for the asset",
          "_pToken": "Address for the corresponding platform token"
        }
      },
      "setRewardLiquidationThreshold(uint256)": {
        "details": "Set the reward token liquidation threshold.",
        "params": {
          "_threshold": "Threshold amount in decimals of reward token that will cause the Vault to claim and withdrawAll on allocate() calls."
        }
      },
      "setRewardLpPair(address,address)": {
        "details": "Set the LP token pairs. Pair tokens for which corresponding ATokens pair exists"
      },
      "setRewardTokenAddress(address)": {
        "details": "Set the reward token address.",
        "params": {
          "_rewardTokenAddress": "Address of the reward token"
        }
      },
      "setStakingAddress(address)": {
        "details": "Set the staking contract address."
      },
      "setUniswapAddress(address)": {
        "details": "Set UniswapV2 Router address."
      },
      "supportsAsset(address)": {
        "details": "Retuns bool indicating whether asset is supported by strategy",
        "params": {
          "_asset": "Address of the asset"
        }
      },
      "transferGovernance(address)": {
        "details": "Transfers Governance of the contract to a new account (`newGovernor`). Can only be called by the current Governor. Must be claimed for this to complete",
        "params": {
          "_newGovernor": "Address of the new Governor"
        }
      },
      "transferToken(address,uint256)": {
        "details": "Transfer token to governor. Intended for recovering tokens stuck in     strategy contracts, i.e. mistaken sends.",
        "params": {
          "_amount": "Amount of the asset to transfer",
          "_asset": "Address for the asset"
        }
      },
      "withdraw(address,address,uint256)": {
        "details": "Withdraw asset from Aave",
        "params": {
          "_amount": "Amount of asset to withdraw",
          "_asset": "Address of asset to withdraw",
          "_recipient": "Address to receive withdrawn asset"
        },
        "return": "amountWithdrawn Amount of asset that was withdrawn"
      },
      "withdrawAll()": {
        "details": "Remove all assets from platform and send them to Vault contract."
      }
    }
  },
  "userdoc": {
    "methods": {}
  }
}