{
  "address": "0xBB939E7Eb0663B9414e59efb29638fbb0AC6A9bA",
  "abi": [
    {
      "constant": true,
      "inputs": [],
      "name": "hasSynced",
      "outputs": [
        {
          "internalType": "bool",
          "name": "",
          "type": "bool"
        }
      ],
      "payable": false,
      "stateMutability": "view",
      "type": "function"
    },
    {
      "constant": true,
      "inputs": [],
      "name": "name",
      "outputs": [
        {
          "internalType": "string",
          "name": "",
          "type": "string"
        }
      ],
      "payable": false,
      "stateMutability": "view",
      "type": "function"
    },
    {
      "constant": true,
      "inputs": [],
      "name": "getReserves",
      "outputs": [
        {
          "internalType": "uint112",
          "name": "",
          "type": "uint112"
        },
        {
          "internalType": "uint112",
          "name": "",
          "type": "uint112"
        },
        {
          "internalType": "uint32",
          "name": "",
          "type": "uint32"
        }
      ],
      "payable": false,
      "stateMutability": "view",
      "type": "function"
    },
    {
      "constant": false,
      "inputs": [
        {
          "internalType": "address",
          "name": "spender",
          "type": "address"
        },
        {
          "internalType": "uint256",
          "name": "amount",
          "type": "uint256"
        }
      ],
      "name": "approve",
      "outputs": [
        {
          "internalType": "bool",
          "name": "",
          "type": "bool"
        }
      ],
      "payable": false,
      "stateMutability": "nonpayable",
      "type": "function"
    },
    {
      "constant": true,
      "inputs": [],
      "name": "token0",
      "outputs": [
        {
          "internalType": "address",
          "name": "",
          "type": "address"
        }
      ],
      "payable": false,
      "stateMutability": "view",
      "type": "function"
    },
    {
      "constant": true,
      "inputs": [],
      "name": "totalSupply",
      "outputs": [
        {
          "internalType": "uint256",
          "name": "",
          "type": "uint256"
        }
      ],
      "payable": false,
      "stateMutability": "view",
      "type": "function"
    },
    {
      "constant": false,
      "inputs": [
        {
          "internalType": "address",
          "name": "sender",
          "type": "address"
        },
        {
          "internalType": "address",
          "name": "recipient",
          "type": "address"
        },
        {
          "internalType": "uint256",
          "name": "amount",
          "type": "uint256"
        }
      ],
      "name": "transferFrom",
      "outputs": [
        {
          "internalType": "bool",
          "name": "",
          "type": "bool"
        }
      ],
      "payable": false,
      "stateMutability": "nonpayable",
      "type": "function"
    },
    {
      "constant": true,
      "inputs": [],
      "name": "decimals",
      "outputs": [
        {
          "internalType": "uint256",
          "name": "",
          "type": "uint256"
        }
      ],
      "payable": false,
      "stateMutability": "view",
      "type": "function"
    },
    {
      "constant": false,
      "inputs": [
        {
          "internalType": "address",
          "name": "spender",
          "type": "address"
        },
        {
          "internalType": "uint256",
          "name": "addedValue",
          "type": "uint256"
        }
      ],
      "name": "increaseAllowance",
      "outputs": [
        {
          "internalType": "bool",
          "name": "",
          "type": "bool"
        }
      ],
      "payable": false,
      "stateMutability": "nonpayable",
      "type": "function"
    },
    {
      "constant": false,
      "inputs": [
        {
          "internalType": "uint256",
          "name": "amount",
          "type": "uint256"
        }
      ],
      "name": "burn",
      "outputs": [],
      "payable": false,
      "stateMutability": "nonpayable",
      "type": "function"
    },
    {
      "constant": true,
      "inputs": [],
      "name": "checkHasSynced",
      "outputs": [],
      "payable": false,
      "stateMutability": "view",
      "type": "function"
    },
    {
      "constant": true,
      "inputs": [],
      "name": "price0CumulativeLast",
      "outputs": [
        {
          "internalType": "uint256",
          "name": "",
          "type": "uint256"
        }
      ],
      "payable": false,
      "stateMutability": "view",
      "type": "function"
    },
    {
      "constant": true,
      "inputs": [],
      "name": "price1CumulativeLast",
      "outputs": [
        {
          "internalType": "uint256",
          "name": "",
          "type": "uint256"
        }
      ],
      "payable": false,
      "stateMutability": "view",
      "type": "function"
    },
    {
      "constant": true,
      "inputs": [
        {
          "internalType": "address",
          "name": "account",
          "type": "address"
        }
      ],
      "name": "balanceOf",
      "outputs": [
        {
          "internalType": "uint256",
          "name": "",
          "type": "uint256"
        }
      ],
      "payable": false,
      "stateMutability": "view",
      "type": "function"
    },
    {
      "constant": false,
      "inputs": [
        {
          "internalType": "uint112",
          "name": "_reserve0",
          "type": "uint112"
        },
        {
          "internalType": "uint112",
          "name": "_reserve1",
          "type": "uint112"
        }
      ],
      "name": "setReserves",
      "outputs": [],
      "payable": false,
      "stateMutability": "nonpayable",
      "type": "function"
    },
    {
      "constant": false,
      "inputs": [
        {
          "internalType": "address",
          "name": "account",
          "type": "address"
        },
        {
          "internalType": "uint256",
          "name": "amount",
          "type": "uint256"
        }
      ],
      "name": "burnFrom",
      "outputs": [],
      "payable": false,
      "stateMutability": "nonpayable",
      "type": "function"
    },
    {
      "constant": true,
      "inputs": [],
      "name": "symbol",
      "outputs": [
        {
          "internalType": "string",
          "name": "",
          "type": "string"
        }
      ],
      "payable": false,
      "stateMutability": "view",
      "type": "function"
    },
    {
      "constant": false,
      "inputs": [
        {
          "internalType": "uint256",
          "name": "value",
          "type": "uint256"
        }
      ],
      "name": "mint",
      "outputs": [
        {
          "internalType": "bool",
          "name": "",
          "type": "bool"
        }
      ],
      "payable": false,
      "stateMutability": "nonpayable",
      "type": "function"
    },
    {
      "constant": false,
      "inputs": [
        {
          "internalType": "address",
          "name": "spender",
          "type": "address"
        },
        {
          "internalType": "uint256",
          "name": "subtractedValue",
          "type": "uint256"
        }
      ],
      "name": "decreaseAllowance",
      "outputs": [
        {
          "internalType": "bool",
          "name": "",
          "type": "bool"
        }
      ],
      "payable": false,
      "stateMutability": "nonpayable",
      "type": "function"
    },
    {
      "constant": false,
      "inputs": [
        {
          "internalType": "address",
          "name": "recipient",
          "type": "address"
        },
        {
          "internalType": "uint256",
          "name": "amount",
          "type": "uint256"
        }
      ],
      "name": "transfer",
      "outputs": [
        {
          "internalType": "bool",
          "name": "",
          "type": "bool"
        }
      ],
      "payable": false,
      "stateMutability": "nonpayable",
      "type": "function"
    },
    {
      "constant": true,
      "inputs": [],
      "name": "token1",
      "outputs": [
        {
          "internalType": "address",
          "name": "",
          "type": "address"
        }
      ],
      "payable": false,
      "stateMutability": "view",
      "type": "function"
    },
    {
      "constant": true,
      "inputs": [
        {
          "internalType": "address",
          "name": "owner",
          "type": "address"
        },
        {
          "internalType": "address",
          "name": "spender",
          "type": "address"
        }
      ],
      "name": "allowance",
      "outputs": [
        {
          "internalType": "uint256",
          "name": "",
          "type": "uint256"
        }
      ],
      "payable": false,
      "stateMutability": "view",
      "type": "function"
    },
    {
      "constant": false,
      "inputs": [],
      "name": "sync",
      "outputs": [],
      "payable": false,
      "stateMutability": "nonpayable",
      "type": "function"
    },
    {
      "inputs": [
        {
          "internalType": "address",
          "name": "_token0",
          "type": "address"
        },
        {
          "internalType": "address",
          "name": "_token1",
          "type": "address"
        },
        {
          "internalType": "address",
          "name": "_router",
          "type": "address"
        }
      ],
      "payable": false,
      "stateMutability": "nonpayable",
      "type": "constructor"
    },
    {
      "anonymous": false,
      "inputs": [
        {
          "indexed": true,
          "internalType": "address",
          "name": "from",
          "type": "address"
        },
        {
          "indexed": true,
          "internalType": "address",
          "name": "to",
          "type": "address"
        },
        {
          "indexed": false,
          "internalType": "uint256",
          "name": "value",
          "type": "uint256"
        }
      ],
      "name": "Transfer",
      "type": "event"
    },
    {
      "anonymous": false,
      "inputs": [
        {
          "indexed": true,
          "internalType": "address",
          "name": "owner",
          "type": "address"
        },
        {
          "indexed": true,
          "internalType": "address",
          "name": "spender",
          "type": "address"
        },
        {
          "indexed": false,
          "internalType": "uint256",
          "name": "value",
          "type": "uint256"
        }
      ],
      "name": "Approval",
      "type": "event"
    }
  ],
  "transactionHash": "0xad2f17a87c8708d0f2f57c9731697c6b083d6332aeb70405d3e2883d7475e031",
  "args": [
    "0xA1e5E15aA7d7E33fB868aEBb7a6b43F412A67335",
    "0xbe5AeFc67151dCEC9010E1d5F9eFb948a716995d",
    "0x88efe587D728853807B5afdfaf5ea8f72B6A71F9"
  ],
  "solcInputHash": "19f61395f16c024a9cec84b97c17c7b9",
  "bytecode": "0x60806040526004805460ff1916905534801561001a57600080fd5b506040516112223803806112228339818101604052606081101561003d57600080fd5b508051602080830151604093840151600080546001600160a01b038087166001600160a01b03199283168117845560018054838816941693909317909255600280547fffffffff000000000000000000000000000000000000000000000000000000001690554260035587517f095ea7b3000000000000000000000000000000000000000000000000000000008152908416600482015260001960248201529651959693959294909363095ea7b39360448083019491928390030190829087803b15801561010a57600080fd5b505af115801561011e573d6000803e3d6000fd5b505050506040513d602081101561013457600080fd5b5050604080517f095ea7b30000000000000000000000000000000000000000000000000000000081526001600160a01b038381166004830152600019602483015291519184169163095ea7b3916044808201926020929091908290030181600087803b1580156101a357600080fd5b505af11580156101b7573d6000803e3d6000fd5b505050506040513d60208110156101cd57600080fd5b5050505050611041806101e16000396000f3fe608060405234801561001057600080fd5b506004361061014d5760003560e01c80635909c0d5116100c3578063a0712d681161007c578063a0712d68146103b6578063a457c2d7146103d3578063a9059cbb146103ff578063d21220a71461042b578063dd62ed3e14610433578063fff6cae9146104615761014d565b80635909c0d51461031e5780635a3d54931461032657806370a082311461032e57806375ea5f2e1461035457806379cc67901461038257806395d89b41146103ae5761014d565b806318160ddd1161011557806318160ddd1461027357806323b872dd1461028d578063313ce567146102c357806339509351146102cb57806342966c68146102f7578063489dfcc2146103165761014d565b806303be259f1461015257806306fdde031461016e5780630902f1ac146101eb578063095ea7b3146102235780630dfe16811461024f575b600080fd5b61015a610469565b604080519115158252519081900360200190f35b610176610472565b6040805160208082528351818301528351919283929083019185019080838360005b838110156101b0578181015183820152602001610198565b50505050905090810190601f1680156101dd5780820380516001836020036101000a031916815260200191505b509250505060405180910390f35b6101f36104ab565b604080516001600160701b03948516815292909316602083015263ffffffff168183015290519081900360600190f35b61015a6004803603604081101561023957600080fd5b506001600160a01b0381351690602001356104c9565b6102576104e6565b604080516001600160a01b039092168252519081900360200190f35b61027b6104f5565b60408051918252519081900360200190f35b61015a600480360360608110156102a357600080fd5b506001600160a01b038135811691602081013590911690604001356104fb565b61027b610588565b61015a600480360360408110156102e157600080fd5b506001600160a01b03813516906020013561058d565b6103146004803603602081101561030d57600080fd5b50356105e1565b005b6103146105f5565b61027b61063b565b61027b610671565b61027b6004803603602081101561034457600080fd5b50356001600160a01b0316610698565b6103146004803603604081101561036a57600080fd5b506001600160701b03813581169160200135166106b3565b6103146004803603604081101561039857600080fd5b506001600160a01b038135169060200135610700565b61017661070e565b61015a600480360360208110156103cc57600080fd5b5035610739565b61015a600480360360408110156103e957600080fd5b506001600160a01b03813516906020013561074d565b61015a6004803603604081101561041557600080fd5b506001600160a01b0381351690602001356107bb565b6102576107cf565b61027b6004803603604081101561044957600080fd5b506001600160a01b03813581169160200135166107de565b610314610809565b60045460ff1681565b6040518060400160405280601881526020017f556e69204c5020546f6b656e206d635553442d6d63455552000000000000000081525081565b6002546003546001600160701b0380831692600160701b9004169192565b60006104dd6104d6610818565b848461081c565b50600192915050565b6000546001600160a01b031690565b60075490565b6000610508848484610908565b61057e84610514610818565b61057985604051806060016040528060288152602001610f32602891396001600160a01b038a16600090815260066020526040812090610552610818565b6001600160a01b03168152602081019190915260400160002054919063ffffffff610a6616565b61081c565b5060019392505050565b601281565b60006104dd61059a610818565b8461057985600660006105ab610818565b6001600160a01b03908116825260208083019390935260409182016000908120918c16815292529020549063ffffffff610afd16565b6105f26105ec610818565b82610b5e565b50565b60045460ff16610639576040805162461bcd60e51b815260206004820152600a602482015269139bdd081cde5b98d95960b21b604482015290519081900360640190fd5b565b60035460025460009190610661906001600160701b03600160701b820481169116610c5a565b516001600160e01b031602905090565b60035460025460009190610661906001600160701b0380821691600160701b900416610c5a565b6001600160a01b031660009081526005602052604090205490565b600280546001600160701b03928316600160701b026dffffffffffffffffffffffffffff60701b19949093166dffffffffffffffffffffffffffff19909116179290921617905542600355565b61070a8282610d0a565b5050565b6040518060400160405280600f81526020016e2aa72496a6a1aaa9a216a6a1a2aaa960891b81525081565b60006107453383610d5e565b506001919050565b60006104dd61075a610818565b8461057985604051806060016040528060258152602001610fe86025913960066000610784610818565b6001600160a01b03908116825260208083019390935260409182016000908120918d1681529252902054919063ffffffff610a6616565b60006104dd6107c8610818565b8484610908565b6001546001600160a01b031690565b6001600160a01b03918216600090815260066020908152604080832093909416825291909152205490565b6004805460ff19166001179055565b3390565b6001600160a01b0383166108615760405162461bcd60e51b8152600401808060200182810382526024815260200180610fc46024913960400191505060405180910390fd5b6001600160a01b0382166108a65760405162461bcd60e51b8152600401808060200182810382526022815260200180610eea6022913960400191505060405180910390fd5b6001600160a01b03808416600081815260066020908152604080832094871680845294825291829020859055815185815291517f8c5be1e5ebec7d5bd14f71427d1e84f3dd0314c0f7b2291e5b200ac8c7c3b9259281900390910190a3505050565b6001600160a01b03831661094d5760405162461bcd60e51b8152600401808060200182810382526025815260200180610f9f6025913960400191505060405180910390fd5b6001600160a01b0382166109925760405162461bcd60e51b8152600401808060200182810382526023815260200180610ea56023913960400191505060405180910390fd5b6109d581604051806060016040528060268152602001610f0c602691396001600160a01b038616600090815260056020526040902054919063ffffffff610a6616565b6001600160a01b038085166000908152600560205260408082209390935590841681522054610a0a908263ffffffff610afd16565b6001600160a01b0380841660008181526005602090815260409182902094909455805185815290519193928716927fddf252ad1be2c89b69c2b068fc378daa952ba7f163c4a11628f55a4df523b3ef92918290030190a3505050565b60008184841115610af55760405162461bcd60e51b81526004018080602001828103825283818151815260200191508051906020019080838360005b83811015610aba578181015183820152602001610aa2565b50505050905090810190601f168015610ae75780820380516001836020036101000a031916815260200191505b509250505060405180910390fd5b505050900390565b600082820183811015610b57576040805162461bcd60e51b815260206004820152601b60248201527f536166654d6174683a206164646974696f6e206f766572666c6f770000000000604482015290519081900360640190fd5b9392505050565b6001600160a01b038216610ba35760405162461bcd60e51b8152600401808060200182810382526021815260200180610f7e6021913960400191505060405180910390fd5b610be681604051806060016040528060228152602001610ec8602291396001600160a01b038516600090815260056020526040902054919063ffffffff610a6616565b6001600160a01b038316600090815260056020526040902055600754610c12908263ffffffff610e5016565b6007556040805182815290516000916001600160a01b038516917fddf252ad1be2c89b69c2b068fc378daa952ba7f163c4a11628f55a4df523b3ef9181900360200190a35050565b610c62610e92565b6000826001600160701b031611610cc0576040805162461bcd60e51b815260206004820152601760248201527f4669786564506f696e743a204449565f42595f5a45524f000000000000000000604482015290519081900360640190fd5b6040805160208101909152806001600160701b0384166dffffffffffffffffffffffffffff60701b607087901b1681610cf557fe5b046001600160e01b0316815250905092915050565b610d148282610b5e565b61070a82610d20610818565b61057984604051806060016040528060248152602001610f5a602491396001600160a01b038816600090815260066020526040812090610552610818565b6001600160a01b038216610db9576040805162461bcd60e51b815260206004820152601f60248201527f45524332303a206d696e7420746f20746865207a65726f206164647265737300604482015290519081900360640190fd5b600754610dcc908263ffffffff610afd16565b6007556001600160a01b038216600090815260056020526040902054610df8908263ffffffff610afd16565b6001600160a01b03831660008181526005602090815260408083209490945583518581529351929391927fddf252ad1be2c89b69c2b068fc378daa952ba7f163c4a11628f55a4df523b3ef9281900390910190a35050565b6000610b5783836040518060400160405280601e81526020017f536166654d6174683a207375627472616374696f6e206f766572666c6f770000815250610a66565b6040805160208101909152600081529056fe45524332303a207472616e7366657220746f20746865207a65726f206164647265737345524332303a206275726e20616d6f756e7420657863656564732062616c616e636545524332303a20617070726f766520746f20746865207a65726f206164647265737345524332303a207472616e7366657220616d6f756e7420657863656564732062616c616e636545524332303a207472616e7366657220616d6f756e74206578636565647320616c6c6f77616e636545524332303a206275726e20616d6f756e74206578636565647320616c6c6f77616e636545524332303a206275726e2066726f6d20746865207a65726f206164647265737345524332303a207472616e736665722066726f6d20746865207a65726f206164647265737345524332303a20617070726f76652066726f6d20746865207a65726f206164647265737345524332303a2064656372656173656420616c6c6f77616e63652062656c6f77207a65726fa265627a7a72315820a7d8043b53bc1c6aa6a193607c0093ee7f905c28c871892342c6ed0b4114a82164736f6c634300050b0032",
  "devdoc": {
    "methods": {
      "allowance(address,address)": {
        "details": "See {IERC20-allowance}."
      },
      "approve(address,uint256)": {
        "details": "See {IERC20-approve}.     * Requirements:     * - `spender` cannot be the zero address."
      },
      "balanceOf(address)": {
        "details": "See {IERC20-balanceOf}."
      },
      "burn(uint256)": {
        "details": "Destroys `amount` tokens from the caller.     * See {ERC20-_burn}."
      },
      "burnFrom(address,uint256)": {
        "details": "See {ERC20-_burnFrom}."
      },
      "decreaseAllowance(address,uint256)": {
        "details": "Atomically decreases the allowance granted to `spender` by the caller.     * This is an alternative to {approve} that can be used as a mitigation for problems described in {IERC20-approve}.     * Emits an {Approval} event indicating the updated allowance.     * Requirements:     * - `spender` cannot be the zero address. - `spender` must have allowance for the caller of at least `subtractedValue`."
      },
      "increaseAllowance(address,uint256)": {
        "details": "Atomically increases the allowance granted to `spender` by the caller.     * This is an alternative to {approve} that can be used as a mitigation for problems described in {IERC20-approve}.     * Emits an {Approval} event indicating the updated allowance.     * Requirements:     * - `spender` cannot be the zero address."
      },
      "mint(uint256)": {
        "details": "Function to mint tokens",
        "params": {
          "value": "The amount of tokens to mint."
        },
        "return": "A boolean that indicates if the operation was successful."
      },
      "totalSupply()": {
        "details": "See {IERC20-totalSupply}."
      },
      "transfer(address,uint256)": {
        "details": "See {IERC20-transfer}.     * Requirements:     * - `recipient` cannot be the zero address. - the caller must have a balance of at least `amount`."
      },
      "transferFrom(address,address,uint256)": {
        "details": "See {IERC20-transferFrom}.     * Emits an {Approval} event indicating the updated allowance. This is not required by the EIP. See the note at the beginning of {ERC20};     * Requirements: - `sender` and `recipient` cannot be the zero address. - `sender` must have a balance of at least `amount`. - the caller must have allowance for `sender`'s tokens of at least `amount`."
      }
    }
  },
  "userdoc": {
    "methods": {}
  }
}