{
  "address": "0x88efe587D728853807B5afdfaf5ea8f72B6A71F9",
  "abi": [
    {
      "constant": true,
      "inputs": [],
      "name": "tok0",
      "outputs": [
        {
          "internalType": "address",
          "name": "",
          "type": "address"
        }
      ],
      "payable": false,
      "stateMutability": "view",
      "type": "function"
    },
    {
      "constant": false,
      "inputs": [
        {
          "internalType": "uint256",
          "name": "amountIn",
          "type": "uint256"
        },
        {
          "internalType": "uint256",
          "name": "amountOutMin",
          "type": "uint256"
        },
        {
          "internalType": "address[]",
          "name": "path",
          "type": "address[]"
        },
        {
          "internalType": "address",
          "name": "to",
          "type": "address"
        },
        {
          "internalType": "uint256",
          "name": "deadline",
          "type": "uint256"
        }
      ],
      "name": "swapExactTokensForTokens",
      "outputs": [
        {
          "internalType": "uint256[]",
          "name": "amounts",
          "type": "uint256[]"
        }
      ],
      "payable": false,
      "stateMutability": "nonpayable",
      "type": "function"
    },
    {
      "constant": true,
      "inputs": [],
      "name": "pairToken",
      "outputs": [
        {
          "internalType": "address",
          "name": "",
          "type": "address"
        }
      ],
      "payable": false,
      "stateMutability": "view",
      "type": "function"
    },
    {
      "constant": true,
      "inputs": [],
      "name": "tok1",
      "outputs": [
        {
          "internalType": "address",
          "name": "",
          "type": "address"
        }
      ],
      "payable": false,
      "stateMutability": "view",
      "type": "function"
    },
    {
      "constant": true,
      "inputs": [
        {
          "internalType": "address",
          "name": "tokenA",
          "type": "address"
        },
        {
          "internalType": "address",
          "name": "tokenB",
          "type": "address"
        }
      ],
      "name": "pairFor",
      "outputs": [
        {
          "internalType": "address",
          "name": "",
          "type": "address"
        }
      ],
      "payable": false,
      "stateMutability": "view",
      "type": "function"
    },
    {
      "constant": false,
      "inputs": [
        {
          "internalType": "address",
          "name": "tokenA",
          "type": "address"
        },
        {
          "internalType": "address",
          "name": "tokenB",
          "type": "address"
        },
        {
          "internalType": "uint256",
          "name": "liquidity",
          "type": "uint256"
        },
        {
          "internalType": "uint256",
          "name": "amountAMin",
          "type": "uint256"
        },
        {
          "internalType": "uint256",
          "name": "amountBMin",
          "type": "uint256"
        },
        {
          "internalType": "address",
          "name": "to",
          "type": "address"
        },
        {
          "internalType": "uint256",
          "name": "deadline",
          "type": "uint256"
        }
      ],
      "name": "removeLiquidity",
      "outputs": [
        {
          "internalType": "uint256",
          "name": "amountA",
          "type": "uint256"
        },
        {
          "internalType": "uint256",
          "name": "amountB",
          "type": "uint256"
        }
      ],
      "payable": false,
      "stateMutability": "nonpayable",
      "type": "function"
    },
    {
      "constant": false,
      "inputs": [
        {
          "internalType": "address",
          "name": "_tok0",
          "type": "address"
        },
        {
          "internalType": "address",
          "name": "_tok1",
          "type": "address"
        },
        {
          "internalType": "address",
          "name": "_pairToken",
          "type": "address"
        }
      ],
      "name": "initialize",
      "outputs": [],
      "payable": false,
      "stateMutability": "nonpayable",
      "type": "function"
    },
    {
      "constant": true,
      "inputs": [],
      "name": "factory",
      "outputs": [
        {
          "internalType": "address",
          "name": "",
          "type": "address"
        }
      ],
      "payable": false,
      "stateMutability": "pure",
      "type": "function"
    },
    {
      "constant": false,
      "inputs": [
        {
          "internalType": "address",
          "name": "tokenA",
          "type": "address"
        },
        {
          "internalType": "address",
          "name": "tokenB",
          "type": "address"
        },
        {
          "internalType": "uint256",
          "name": "amountADesired",
          "type": "uint256"
        },
        {
          "internalType": "uint256",
          "name": "amountBDesired",
          "type": "uint256"
        },
        {
          "internalType": "uint256",
          "name": "amountAMin",
          "type": "uint256"
        },
        {
          "internalType": "uint256",
          "name": "amountBMin",
          "type": "uint256"
        },
        {
          "internalType": "address",
          "name": "to",
          "type": "address"
        },
        {
          "internalType": "uint256",
          "name": "deadline",
          "type": "uint256"
        }
      ],
      "name": "addLiquidity",
      "outputs": [
        {
          "internalType": "uint256",
          "name": "amountA",
          "type": "uint256"
        },
        {
          "internalType": "uint256",
          "name": "amountB",
          "type": "uint256"
        },
        {
          "internalType": "uint256",
          "name": "liquidity",
          "type": "uint256"
        }
      ],
      "payable": false,
      "stateMutability": "nonpayable",
      "type": "function"
    }
  ],
  "transactionHash": "0xf46280cc06c4bc4718b200ac31a97f1aa900c4f37199124eccff8a68c8636abb",
  "args": [],
  "solcInputHash": "19f61395f16c024a9cec84b97c17c7b9",
  "bytecode": "0x608060405234801561001057600080fd5b50611228806100206000396000f3fe608060405234801561001057600080fd5b50600436106100935760003560e01c806396ed28f91161006657806396ed28f9146101a7578063baa2abde146101d5578063c0c53b8b1461023e578063c45a015514610278578063e8e337001461028057610093565b80630d9038fa1461009857806338ed1739146100bc5780633de35b7914610197578063828220391461019f575b600080fd5b6100a06102f3565b604080516001600160a01b039092168252519081900360200190f35b610147600480360360a08110156100d257600080fd5b8135916020810135918101906060810160408201356401000000008111156100f957600080fd5b82018360208201111561010b57600080fd5b8035906020019184602083028401116401000000008311171561012d57600080fd5b91935091506001600160a01b038135169060200135610302565b60408051602080825283518183015283519192839290830191858101910280838360005b8381101561018357818101518382015260200161016b565b505050509050019250505060405180910390f35b6100a061054b565b6100a061055a565b6100a0600480360360408110156101bd57600080fd5b506001600160a01b0381358116916020013516610569565b610225600480360360e08110156101eb57600080fd5b506001600160a01b038135811691602081013582169160408201359160608101359160808201359160a08101359091169060c0013561057c565b6040805192835260208301919091528051918290030190f35b6102766004803603606081101561025457600080fd5b506001600160a01b038135811691602081013582169160409091013516610a62565b005b6100a0610aae565b6102d5600480360361010081101561029757600080fd5b506001600160a01b038135811691602081013582169160408201359160608101359160808201359160a08101359160c0820135169060e00135610ab3565b60408051938452602084019290925282820152519081900360600190f35b6001546001600160a01b031681565b606060008585600081811061031357fe5b905060200201356001600160a01b03169050600086866001898990500381811061033957fe5b905060200201356001600160a01b03169050600061037161035984610dd4565b61036284610dd4565b8c91900363ffffffff610e8e16565b604080516323b872dd60e01b8152336004820152306024820152604481018d905290519192506001600160a01b038516916323b872dd916064808201926020929091908290030181600087803b1580156103ca57600080fd5b505af11580156103de573d6000803e3d6000fd5b505050506040513d60208110156103f457600080fd5b50506040805163140e25ad60e31b81526004810183905290516001600160a01b0384169163a0712d689160248083019260209291908290030181600087803b15801561043f57600080fd5b505af1158015610453573d6000803e3d6000fd5b505050506040513d602081101561046957600080fd5b50506040805163a9059cbb60e01b81526001600160a01b0388811660048301526024820184905291519184169163a9059cbb916044808201926020929091908290030181600087803b1580156104be57600080fd5b505af11580156104d2573d6000803e3d6000fd5b505050506040513d60208110156104e857600080fd5b50506040805160028082526060820183529091602083019080388339019050509350808460008151811061051857fe5b602002602001018181525050808460018151811061053257fe5b6020026020010181815250505050509695505050505050565b6000546001600160a01b031681565b6002546001600160a01b031681565b6000546001600160a01b03165b92915050565b60008060008061058c8b8b610ee8565b60015491935091506001600160a01b038084169116146105dd5760405162461bcd60e51b81526004018080602001828103825260258152602001806111ae6025913960400191505060405180910390fd5b6002546001600160a01b038281169116146106295760405162461bcd60e51b81526004018080602001828103825260258152602001806111ae6025913960400191505060405180910390fd5b60008060009054906101000a90046001600160a01b03166001600160a01b03166318160ddd6040518163ffffffff1660e01b815260040160206040518083038186803b15801561067857600080fd5b505afa15801561068c573d6000803e3d6000fd5b505050506040513d60208110156106a257600080fd5b505160015460008054604080516370a0823160e01b81526001600160a01b039283166004820152905194955091939216916370a0823191602480820192602092909190829003018186803b1580156106f957600080fd5b505afa15801561070d573d6000803e3d6000fd5b505050506040513d602081101561072357600080fd5b505160025460008054604080516370a0823160e01b81526001600160a01b039283166004820152905194955091939216916370a0823191602480820192602092909190829003018186803b15801561077a57600080fd5b505afa15801561078e573d6000803e3d6000fd5b505050506040513d60208110156107a457600080fd5b810190808051906020019092919050505090506000809054906101000a90046001600160a01b03166001600160a01b03166323b872dd33308f6040518463ffffffff1660e01b815260040180846001600160a01b03166001600160a01b03168152602001836001600160a01b03166001600160a01b031681526020018281526020019350505050602060405180830381600087803b15801561084557600080fd5b505af1158015610859573d6000803e3d6000fd5b505050506040513d602081101561086f57600080fd5b8101908080519060200190929190505050506000809054906101000a90046001600160a01b03166001600160a01b03166342966c688d6040518263ffffffff1660e01b815260040180828152602001915050600060405180830381600087803b1580156108db57600080fd5b505af11580156108ef573d6000803e3d6000fd5b5050505082610907838e610fc690919063ffffffff16565b8161090e57fe5b049650826109228d8363ffffffff610fc616565b8161092957fe5b60015460008054604080516323b872dd60e01b81526001600160a01b0392831660048201528f83166024820152604481018e90529051959094049a50909116926323b872dd926064808201936020939283900390910190829087803b15801561099157600080fd5b505af11580156109a5573d6000803e3d6000fd5b505050506040513d60208110156109bb57600080fd5b505060025460008054604080516323b872dd60e01b81526001600160a01b0392831660048201528d83166024820152604481018b9052905191909316926323b872dd9260648083019360209390929083900390910190829087803b158015610a2257600080fd5b505af1158015610a36573d6000803e3d6000fd5b505050506040513d6020811015610a4c57600080fd5b50969e959d50949b505050505050505050505050565b610a6c8383610ee8565b600280546001600160a01b03199081166001600160a01b0393841617909155600180548216938316939093179092556000805490921692169190911790555050565b600090565b6000806000806000610ac58d8d610ee8565b60015491935091506001600160a01b03808416911614610b165760405162461bcd60e51b81526004018080602001828103825260258152602001806111ae6025913960400191505060405180910390fd5b6002546001600160a01b03828116911614610b625760405162461bcd60e51b81526004018080602001828103825260258152602001806111ae6025913960400191505060405180910390fd5b6001546001600160a01b038e8116911614610b7e57898b610b81565b8a8a5b60015460008054604080516323b872dd60e01b81523360048201526001600160a01b039283166024820152604481018790529051959a50939850909116926323b872dd926064808201936020939283900390910190829087803b158015610be757600080fd5b505af1158015610bfb573d6000803e3d6000fd5b505050506040513d6020811015610c1157600080fd5b505060025460008054604080516323b872dd60e01b81523360048201526001600160a01b03928316602482015260448101899052905191909316926323b872dd9260648083019360209390929083900390910190829087803b158015610c7657600080fd5b505af1158015610c8a573d6000803e3d6000fd5b505050506040513d6020811015610ca057600080fd5b50610cb39050858563ffffffff61102616565b92506000809054906101000a90046001600160a01b03166001600160a01b031663a0712d68846040518263ffffffff1660e01b815260040180828152602001915050602060405180830381600087803b158015610d0f57600080fd5b505af1158015610d23573d6000803e3d6000fd5b505050506040513d6020811015610d3957600080fd5b5050600080546040805163a9059cbb60e01b81526001600160a01b038b81166004830152602482018890529151919092169263a9059cbb92604480820193602093909283900390910190829087803b158015610d9457600080fd5b505af1158015610da8573d6000803e3d6000fd5b505050506040513d6020811015610dbe57600080fd5b50949d939c50919a509198505050505050505050565b600080826001600160a01b031663313ce5676040518163ffffffff1660e01b815260040160206040518083038186803b158015610e1057600080fd5b505afa158015610e24573d6000803e3d6000fd5b505050506040513d6020811015610e3a57600080fd5b505160ff16905060048110801590610e53575060128111155b6105765760405162461bcd60e51b81526004018080602001828103825260298152602001806111856029913960400191505060405180910390fd5b6000808260000b1315610eb957610eb283600084900b600a0a63ffffffff610fc616565b9250610ee1565b60008260000b1215610ee157610ede836000848103900b600a0a63ffffffff61108016565b92505b5090919050565b600080826001600160a01b0316846001600160a01b03161415610f3c5760405162461bcd60e51b81526004018080602001828103825260258152602001806111606025913960400191505060405180910390fd5b826001600160a01b0316846001600160a01b031610610f5c578284610f5f565b83835b90925090506001600160a01b038216610fbf576040805162461bcd60e51b815260206004820152601e60248201527f556e697377617056324c6962726172793a205a45524f5f414444524553530000604482015290519081900360640190fd5b9250929050565b600082610fd557506000610576565b82820282848281610fe257fe5b041461101f5760405162461bcd60e51b81526004018080602001828103825260218152602001806111d36021913960400191505060405180910390fd5b9392505050565b60008282018381101561101f576040805162461bcd60e51b815260206004820152601b60248201527f536166654d6174683a206164646974696f6e206f766572666c6f770000000000604482015290519081900360640190fd5b600061101f83836040518060400160405280601a81526020017f536166654d6174683a206469766973696f6e206279207a65726f000000000000815250600081836111495760405162461bcd60e51b81526004018080602001828103825283818151815260200191508051906020019080838360005b8381101561110e5781810151838201526020016110f6565b50505050905090810190601f16801561113b5780820380516001836020036101000a031916815260200191505b509250505060405180910390fd5b50600083858161115557fe5b049594505050505056fe556e697377617056324c6962726172793a204944454e544943414c5f414444524553534553546f6b656e206d75737420686176652073756666696369656e7420646563696d616c20706c616365734d6f636b556e69737761705632526f757465723a20446966666572656e7420746f6b656e73536166654d6174683a206d756c7469706c69636174696f6e206f766572666c6f77a265627a7a72315820419dd7f485ad692a161402b27ae473770c954049f0db33888649f9d80e1eaee964736f6c634300050b0032",
  "devdoc": {
    "methods": {}
  },
  "userdoc": {
    "methods": {}
  }
}