{
  "address": "0x11D8E6aBc19DAE3AbA0Fe976c3685f2f28a3eF2b",
  "abi": [
    {
      "constant": true,
      "inputs": [],
      "name": "redeemFeeBps",
      "outputs": [
        {
          "internalType": "uint256",
          "name": "",
          "type": "uint256"
        }
      ],
      "payable": false,
      "stateMutability": "view",
      "type": "function"
    },
    {
      "constant": true,
      "inputs": [],
      "name": "governor",
      "outputs": [
        {
          "internalType": "address",
          "name": "",
          "type": "address"
        }
      ],
      "payable": false,
      "stateMutability": "view",
      "type": "function"
    },
    {
      "constant": true,
      "inputs": [],
      "name": "uniswapAddr",
      "outputs": [
        {
          "internalType": "address",
          "name": "",
          "type": "address"
        }
      ],
      "payable": false,
      "stateMutability": "view",
      "type": "function"
    },
    {
      "constant": false,
      "inputs": [
        {
          "internalType": "address",
          "name": "_asset",
          "type": "address"
        },
        {
          "internalType": "uint256",
          "name": "_amount",
          "type": "uint256"
        },
        {
          "internalType": "uint256",
          "name": "_minimumOusdAmount",
          "type": "uint256"
        }
      ],
      "name": "mint",
      "outputs": [],
      "payable": false,
      "stateMutability": "nonpayable",
      "type": "function"
    },
    {
      "constant": true,
      "inputs": [],
      "name": "vaultBuffer",
      "outputs": [
        {
          "internalType": "uint256",
          "name": "",
          "type": "uint256"
        }
      ],
      "payable": false,
      "stateMutability": "view",
      "type": "function"
    },
    {
      "constant": true,
      "inputs": [],
      "name": "trusteeFeeBps",
      "outputs": [
        {
          "internalType": "uint256",
          "name": "",
          "type": "uint256"
        }
      ],
      "payable": false,
      "stateMutability": "view",
      "type": "function"
    },
    {
      "constant": true,
      "inputs": [],
      "name": "getAllAssets",
      "outputs": [
        {
          "internalType": "address[]",
          "name": "",
          "type": "address[]"
        }
      ],
      "payable": false,
      "stateMutability": "view",
      "type": "function"
    },
    {
      "constant": true,
      "inputs": [],
      "name": "getStrategyCount",
      "outputs": [
        {
          "internalType": "uint256",
          "name": "",
          "type": "uint256"
        }
      ],
      "payable": false,
      "stateMutability": "view",
      "type": "function"
    },
    {
      "constant": false,
      "inputs": [
        {
          "internalType": "address",
          "name": "_priceProvider",
          "type": "address"
        },
        {
          "internalType": "address",
          "name": "_ousd",
          "type": "address"
        }
      ],
      "name": "initialize",
      "outputs": [],
      "payable": false,
      "stateMutability": "nonpayable",
      "type": "function"
    },
    {
      "constant": true,
      "inputs": [],
      "name": "trusteeAddress",
      "outputs": [
        {
          "internalType": "address",
          "name": "",
          "type": "address"
        }
      ],
      "payable": false,
      "stateMutability": "view",
      "type": "function"
    },
    {
      "constant": true,
      "inputs": [],
      "name": "rebaseThreshold",
      "outputs": [
        {
          "internalType": "uint256",
          "name": "",
          "type": "uint256"
        }
      ],
      "payable": false,
      "stateMutability": "view",
      "type": "function"
    },
    {
      "constant": true,
      "inputs": [],
      "name": "rebasePaused",
      "outputs": [
        {
          "internalType": "bool",
          "name": "",
          "type": "bool"
        }
      ],
      "payable": false,
      "stateMutability": "view",
      "type": "function"
    },
    {
      "constant": true,
      "inputs": [],
      "name": "strategistAddr",
      "outputs": [
        {
          "internalType": "address",
          "name": "",
          "type": "address"
        }
      ],
      "payable": false,
      "stateMutability": "view",
      "type": "function"
    },
    {
      "constant": false,
      "inputs": [],
      "name": "claimGovernance",
      "outputs": [],
      "payable": false,
      "stateMutability": "nonpayable",
      "type": "function"
    },
    {
      "constant": true,
      "inputs": [
        {
          "internalType": "address",
          "name": "_asset",
          "type": "address"
        }
      ],
      "name": "checkBalance",
      "outputs": [
        {
          "internalType": "uint256",
          "name": "",
          "type": "uint256"
        }
      ],
      "payable": false,
      "stateMutability": "view",
      "type": "function"
    },
    {
      "constant": false,
      "inputs": [
        {
          "internalType": "uint256",
          "name": "_maxSupplyDiff",
          "type": "uint256"
        }
      ],
      "name": "setMaxSupplyDiff",
      "outputs": [],
      "payable": false,
      "stateMutability": "nonpayable",
      "type": "function"
    },
    {
      "constant": true,
      "inputs": [
        {
          "internalType": "uint256",
          "name": "_amount",
          "type": "uint256"
        }
      ],
      "name": "calculateRedeemOutputs",
      "outputs": [
        {
          "internalType": "uint256[]",
          "name": "",
          "type": "uint256[]"
        }
      ],
      "payable": false,
      "stateMutability": "view",
      "type": "function"
    },
    {
      "constant": false,
      "inputs": [
        {
          "internalType": "uint256",
          "name": "_minimumUnitAmount",
          "type": "uint256"
        }
      ],
      "name": "redeemAll",
      "outputs": [],
      "payable": false,
      "stateMutability": "nonpayable",
      "type": "function"
    },
    {
      "constant": false,
      "inputs": [
        {
          "internalType": "uint256",
          "name": "_amount",
          "type": "uint256"
        },
        {
          "internalType": "uint256",
          "name": "_minimumUnitAmount",
          "type": "uint256"
        }
      ],
      "name": "redeem",
      "outputs": [],
      "payable": false,
      "stateMutability": "nonpayable",
      "type": "function"
    },
    {
      "constant": true,
      "inputs": [],
      "name": "maxSupplyDiff",
      "outputs": [
        {
          "internalType": "uint256",
          "name": "",
          "type": "uint256"
        }
      ],
      "payable": false,
      "stateMutability": "view",
      "type": "function"
    },
    {
      "constant": true,
      "inputs": [
        {
          "internalType": "address",
          "name": "_asset",
          "type": "address"
        }
      ],
      "name": "isSupportedAsset",
      "outputs": [
        {
          "internalType": "bool",
          "name": "",
          "type": "bool"
        }
      ],
      "payable": false,
      "stateMutability": "view",
      "type": "function"
    },
    {
      "constant": true,
      "inputs": [],
      "name": "autoAllocateThreshold",
      "outputs": [
        {
          "internalType": "uint256",
          "name": "",
          "type": "uint256"
        }
      ],
      "payable": false,
      "stateMutability": "view",
      "type": "function"
    },
    {
      "constant": true,
      "inputs": [],
      "name": "getAssetCount",
      "outputs": [
        {
          "internalType": "uint256",
          "name": "",
          "type": "uint256"
        }
      ],
      "payable": false,
      "stateMutability": "view",
      "type": "function"
    },
    {
      "constant": true,
      "inputs": [
        {
          "internalType": "address",
          "name": "",
          "type": "address"
        }
      ],
      "name": "assetDefaultStrategies",
      "outputs": [
        {
          "internalType": "address",
          "name": "",
          "type": "address"
        }
      ],
      "payable": false,
      "stateMutability": "view",
      "type": "function"
    },
    {
      "constant": false,
      "inputs": [],
      "name": "allocate",
      "outputs": [],
      "payable": false,
      "stateMutability": "nonpayable",
      "type": "function"
    },
    {
      "constant": false,
      "inputs": [],
      "name": "rebase",
      "outputs": [],
      "payable": false,
      "stateMutability": "nonpayable",
      "type": "function"
    },
    {
      "constant": true,
      "inputs": [],
      "name": "priceProvider",
      "outputs": [
        {
          "internalType": "address",
          "name": "",
          "type": "address"
        }
      ],
      "payable": false,
      "stateMutability": "view",
      "type": "function"
    },
    {
      "constant": false,
      "inputs": [
        {
          "internalType": "uint256",
          "name": "_totalValue",
          "type": "uint256"
        }
      ],
      "name": "setTotalValue",
      "outputs": [],
      "payable": false,
      "stateMutability": "nonpayable",
      "type": "function"
    },
    {
      "constant": true,
      "inputs": [],
      "name": "isGovernor",
      "outputs": [
        {
          "internalType": "bool",
          "name": "",
          "type": "bool"
        }
      ],
      "payable": false,
      "stateMutability": "view",
      "type": "function"
    },
    {
      "constant": false,
      "inputs": [
        {
          "internalType": "address",
          "name": "_newGovernor",
          "type": "address"
        }
      ],
      "name": "transferGovernance",
      "outputs": [],
      "payable": false,
      "stateMutability": "nonpayable",
      "type": "function"
    },
    {
      "constant": true,
      "inputs": [],
      "name": "totalValue",
      "outputs": [
        {
          "internalType": "uint256",
          "name": "",
          "type": "uint256"
        }
      ],
      "payable": false,
      "stateMutability": "view",
      "type": "function"
    },
    {
      "constant": true,
      "inputs": [],
      "name": "capitalPaused",
      "outputs": [
        {
          "internalType": "bool",
          "name": "",
          "type": "bool"
        }
      ],
      "payable": false,
      "stateMutability": "view",
      "type": "function"
    },
    {
      "constant": false,
      "inputs": [
        {
          "internalType": "address[]",
          "name": "_assets",
          "type": "address[]"
        },
        {
          "internalType": "uint256[]",
          "name": "_amounts",
          "type": "uint256[]"
        },
        {
          "internalType": "uint256",
          "name": "_minimumOusdAmount",
          "type": "uint256"
        }
      ],
      "name": "mintMultiple",
      "outputs": [],
      "payable": false,
      "stateMutability": "nonpayable",
      "type": "function"
    },
    {
      "constant": false,
      "inputs": [
        {
          "internalType": "address",
          "name": "newImpl",
          "type": "address"
        }
      ],
      "name": "setAdminImpl",
      "outputs": [],
      "payable": false,
      "stateMutability": "nonpayable",
      "type": "function"
    },
    {
      "payable": true,
      "stateMutability": "payable",
      "type": "fallback"
    },
    {
      "anonymous": false,
      "inputs": [
        {
          "indexed": false,
          "internalType": "address",
          "name": "_asset",
          "type": "address"
        }
      ],
      "name": "AssetSupported",
      "type": "event"
    },
    {
      "anonymous": false,
      "inputs": [
        {
          "indexed": false,
          "internalType": "address",
          "name": "_asset",
          "type": "address"
        },
        {
          "indexed": false,
          "internalType": "address",
          "name": "_strategy",
          "type": "address"
        }
      ],
      "name": "AssetDefaultStrategyUpdated",
      "type": "event"
    },
    {
      "anonymous": false,
      "inputs": [
        {
          "indexed": false,
          "internalType": "address",
          "name": "_addr",
          "type": "address"
        }
      ],
      "name": "StrategyApproved",
      "type": "event"
    },
    {
      "anonymous": false,
      "inputs": [
        {
          "indexed": false,
          "internalType": "address",
          "name": "_addr",
          "type": "address"
        }
      ],
      "name": "StrategyRemoved",
      "type": "event"
    },
    {
      "anonymous": false,
      "inputs": [
        {
          "indexed": false,
          "internalType": "address",
          "name": "_addr",
          "type": "address"
        },
        {
          "indexed": false,
          "internalType": "uint256",
          "name": "_value",
          "type": "uint256"
        }
      ],
      "name": "Mint",
      "type": "event"
    },
    {
      "anonymous": false,
      "inputs": [
        {
          "indexed": false,
          "internalType": "address",
          "name": "_addr",
          "type": "address"
        },
        {
          "indexed": false,
          "internalType": "uint256",
          "name": "_value",
          "type": "uint256"
        }
      ],
      "name": "Redeem",
      "type": "event"
    },
    {
      "anonymous": false,
      "inputs": [],
      "name": "CapitalPaused",
      "type": "event"
    },
    {
      "anonymous": false,
      "inputs": [],
      "name": "CapitalUnpaused",
      "type": "event"
    },
    {
      "anonymous": false,
      "inputs": [],
      "name": "RebasePaused",
      "type": "event"
    },
    {
      "anonymous": false,
      "inputs": [],
      "name": "RebaseUnpaused",
      "type": "event"
    },
    {
      "anonymous": false,
      "inputs": [
        {
          "indexed": false,
          "internalType": "uint256",
          "name": "_vaultBuffer",
          "type": "uint256"
        }
      ],
      "name": "VaultBufferUpdated",
      "type": "event"
    },
    {
      "anonymous": false,
      "inputs": [
        {
          "indexed": false,
          "internalType": "uint256",
          "name": "_redeemFeeBps",
          "type": "uint256"
        }
      ],
      "name": "RedeemFeeUpdated",
      "type": "event"
    },
    {
      "anonymous": false,
      "inputs": [
        {
          "indexed": false,
          "internalType": "address",
          "name": "_priceProvider",
          "type": "address"
        }
      ],
      "name": "PriceProviderUpdated",
      "type": "event"
    },
    {
      "anonymous": false,
      "inputs": [
        {
          "indexed": false,
          "internalType": "uint256",
          "name": "_threshold",
          "type": "uint256"
        }
      ],
      "name": "AllocateThresholdUpdated",
      "type": "event"
    },
    {
      "anonymous": false,
      "inputs": [
        {
          "indexed": false,
          "internalType": "uint256",
          "name": "_threshold",
          "type": "uint256"
        }
      ],
      "name": "RebaseThresholdUpdated",
      "type": "event"
    },
    {
      "anonymous": false,
      "inputs": [
        {
          "indexed": false,
          "internalType": "address",
          "name": "_address",
          "type": "address"
        }
      ],
      "name": "UniswapUpdated",
      "type": "event"
    },
    {
      "anonymous": false,
      "inputs": [
        {
          "indexed": false,
          "internalType": "address",
          "name": "_address",
          "type": "address"
        }
      ],
      "name": "StrategistUpdated",
      "type": "event"
    },
    {
      "anonymous": false,
      "inputs": [
        {
          "indexed": false,
          "internalType": "uint256",
          "name": "maxSupplyDiff",
          "type": "uint256"
        }
      ],
      "name": "MaxSupplyDiffChanged",
      "type": "event"
    },
    {
      "anonymous": false,
      "inputs": [
        {
          "indexed": false,
          "internalType": "address",
          "name": "_to",
          "type": "address"
        },
        {
          "indexed": false,
          "internalType": "uint256",
          "name": "_yield",
          "type": "uint256"
        },
        {
          "indexed": false,
          "internalType": "uint256",
          "name": "_fee",
          "type": "uint256"
        }
      ],
      "name": "YieldDistribution",
      "type": "event"
    },
    {
      "anonymous": false,
      "inputs": [
        {
          "indexed": false,
          "internalType": "uint256",
          "name": "_basis",
          "type": "uint256"
        }
      ],
      "name": "TrusteeFeeBpsChanged",
      "type": "event"
    },
    {
      "anonymous": false,
      "inputs": [
        {
          "indexed": false,
          "internalType": "address",
          "name": "_address",
          "type": "address"
        }
      ],
      "name": "TrusteeAddressChanged",
      "type": "event"
    },
    {
      "anonymous": false,
      "inputs": [
        {
          "indexed": true,
          "internalType": "address",
          "name": "previousGovernor",
          "type": "address"
        },
        {
          "indexed": true,
          "internalType": "address",
          "name": "newGovernor",
          "type": "address"
        }
      ],
      "name": "PendingGovernorshipTransfer",
      "type": "event"
    },
    {
      "anonymous": false,
      "inputs": [
        {
          "indexed": true,
          "internalType": "address",
          "name": "previousGovernor",
          "type": "address"
        },
        {
          "indexed": true,
          "internalType": "address",
          "name": "newGovernor",
          "type": "address"
        }
      ],
      "name": "GovernorshipTransferred",
      "type": "event"
    }
  ],
  "transactionHash": "0x633cd60612e8ac144854a7e77bb0c0bfb8576894e5560fbf7f347a9c3d669b56",
  "args": [],
  "solcInputHash": "a361d02ba9271b73a633ef727a1ec95a",
  "bytecode": "0x60806040526037805461ffff60a01b19167501000000000000000000000000000000000000000000179055603d80546001600160a01b0319908116909155603e805482169055603f8054909116905562000062336001600160e01b03620000bb16565b620000756001600160e01b03620000ce16565b6001600160a01b031660006001600160a01b03167fc7c0c772add429241571afb3805861fb3cfa2af374534088b76cdb4325a87e9a60405160405180910390a3620000e2565b60008051602062003a3983398151915255565b60008051602062003a398339815191525490565b61394780620000f26000396000f3fe6080604052600436106101f95760003560e01c80637136a7a61161010d578063af14052c116100a0578063d38bfff41161006f578063d38bfff41461064d578063d4c3eea014610680578063e6cc543214610695578063f0efb4c7146106aa578063fc0cfeee14610779576101f9565b8063af14052c146105e4578063b888879e146105f9578063c5dbc9001461060e578063c7af335214610638576101f9565b80639fa1826e116100dc5780639fa1826e14610572578063a0aead4d14610587578063a403e4d51461059c578063abaa9916146105cf576101f9565b80637136a7a6146104d05780637cbc2373146104fa5780638e510b521461052a5780639be918e61461053f576101f9565b8063485cc95511610190578063570d8e1d1161015f578063570d8e1d1461041f5780635d36b190146104345780635f51522614610449578063663e64ce1461047c57806367bd7ba3146104a6576101f9565b8063485cc9551461039157806349c1d54d146103cc57806352d38e5d146103e157806353ca9f24146103f6576101f9565b80631edfe3da116101cc5780631edfe3da146102ed578063207134b0146103025780632acada4d1461031757806331e19cfa1461037c576101f9565b806309f6442c1461023f5780630c340a2414610266578063128a8b0514610297578063156e29f6146102ac575b7fa2bd3d3cf188a41358c8b401076eb59066b09dec5775650c0de4c55187d17bd9366000803760008036600084545af43d6000803e80801561023a573d6000f35b3d6000fd5b34801561024b57600080fd5b506102546107ac565b60408051918252519081900360200190f35b34801561027257600080fd5b5061027b6107b2565b604080516001600160a01b039092168252519081900360200190f35b3480156102a357600080fd5b5061027b6107c1565b3480156102b857600080fd5b506102eb600480360360608110156102cf57600080fd5b506001600160a01b0381351690602081013590604001356107d0565b005b3480156102f957600080fd5b50610254610b5d565b34801561030e57600080fd5b50610254610b63565b34801561032357600080fd5b5061032c610b69565b60408051602080825283518183015283519192839290830191858101910280838360005b83811015610368578181015183820152602001610350565b505050509050019250505060405180910390f35b34801561038857600080fd5b50610254610bcb565b34801561039d57600080fd5b506102eb600480360360408110156103b457600080fd5b506001600160a01b0381358116916020013516610bd1565b3480156103d857600080fd5b5061027b610ddc565b3480156103ed57600080fd5b50610254610deb565b34801561040257600080fd5b5061040b610df1565b604080519115158252519081900360200190f35b34801561042b57600080fd5b5061027b610e01565b34801561044057600080fd5b506102eb610e10565b34801561045557600080fd5b506102546004803603602081101561046c57600080fd5b50356001600160a01b0316610e72565b34801561048857600080fd5b506102eb6004803603602081101561049f57600080fd5b5035610e83565b3480156104b257600080fd5b5061032c600480360360208110156104c957600080fd5b5035610ede565b3480156104dc57600080fd5b506102eb600480360360208110156104f357600080fd5b5035610ee9565b34801561050657600080fd5b506102eb6004803603604081101561051d57600080fd5b50803590602001356110b9565b34801561053657600080fd5b506102546111a0565b34801561054b57600080fd5b5061040b6004803603602081101561056257600080fd5b50356001600160a01b03166111a6565b34801561057e57600080fd5b506102546111c4565b34801561059357600080fd5b506102546111ca565b3480156105a857600080fd5b5061027b600480360360208110156105bf57600080fd5b50356001600160a01b03166111d0565b3480156105db57600080fd5b506102eb6111eb565b3480156105f057600080fd5b506102eb6112a6565b34801561060557600080fd5b5061027b61135b565b34801561061a57600080fd5b506102eb6004803603602081101561063157600080fd5b503561136a565b34801561064457600080fd5b5061040b61136f565b34801561065957600080fd5b506102eb6004803603602081101561067057600080fd5b50356001600160a01b0316611392565b34801561068c57600080fd5b5061025461143b565b3480156106a157600080fd5b5061040b611441565b3480156106b657600080fd5b506102eb600480360360608110156106cd57600080fd5b8101906020810181356401000000008111156106e857600080fd5b8201836020820111156106fa57600080fd5b8035906020019184602083028401116401000000008311171561071c57600080fd5b91939092909160208101903564010000000081111561073a57600080fd5b82018360208201111561074c57600080fd5b8035906020019184602083028401116401000000008311171561076e57600080fd5b919350915035611451565b34801561078557600080fd5b506102eb6004803603602081101561079c57600080fd5b50356001600160a01b0316611931565b60385481565b60006107bc6119ef565b905090565b603e546001600160a01b031681565b603754600160a81b900460ff1615610820576040805162461bcd60e51b815260206004820152600e60248201526d10d85c1a5d185b081c185d5cd95960921b604482015290519081900360640190fd5b6000805160206137db83398151915280546002811415610878576040805162461bcd60e51b815260206004820152600e60248201526d1499595b9d1c985b9d0818d85b1b60921b604482015290519081900360640190fd5b600282556001600160a01b03851660009081526033602052604090205460ff166108e2576040805162461bcd60e51b8152602060048201526016602482015275105cdcd95d081a5cc81b9bdd081cdd5c1c1bdc9d195960521b604482015290519081900360640190fd5b60008411610937576040805162461bcd60e51b815260206004820152601d60248201527f416d6f756e74206d7573742062652067726561746572207468616e2030000000604482015290519081900360640190fd5b603754604080516315d5220f60e31b81526001600160a01b0388811660048301529151600093929092169163aea9107891602480820192602092909190829003018186803b15801561098857600080fd5b505afa15801561099c573d6000803e3d6000fd5b505050506040513d60208110156109b257600080fd5b5051905060006109c187611a14565b905060006109d987601284900363ffffffff611ace16565b905060006109f28885600a86900a63ffffffff611b2816565b90508615610a4f5786811015610a4f576040805162461bcd60e51b815260206004820152601e60248201527f4d696e7420616d6f756e74206c6f776572207468616e206d696e696d756d0000604482015290519081900360640190fd5b604080513381526020810183905281517f0f6798a560793a54c3bcfe86a93cde1e73087d944c0ea20544137d4121396885929181900390910190a1603b548210158015610aa65750603754600160a01b900460ff16155b15610ab357610ab3611b56565b603c54604080516340c10f1960e01b81523360048201526024810184905290516001600160a01b03909216916340c10f199160448082019260009290919082900301818387803b158015610b0657600080fd5b505af1158015610b1a573d6000803e3d6000fd5b508b9250610b3c9150506001600160a01b03821633308c63ffffffff611e7c16565b603a548310610b4d57610b4d611edc565b5050505050600182555050505050565b60395481565b60435481565b60606034805480602002602001604051908101604052809291908181526020018280548015610bc157602002820191906000526020600020905b81546001600160a01b03168152600190910190602001808311610ba3575b5050505050905090565b60365490565b610bd961136f565b610c27576040805162461bcd60e51b815260206004820152601a60248201527921b0b63632b91034b9903737ba103a34329023b7bb32b93737b960311b604482015290519081900360640190fd5b600054610100900460ff1680610c405750610c406123ff565b80610c4e575060005460ff16155b610c895760405162461bcd60e51b815260040180806020018281038252602e815260200180613869602e913960400191505060405180910390fd5b600054610100900460ff16158015610cb4576000805460ff1961ff0019909116610100171660011790555b6001600160a01b038316610d0f576040805162461bcd60e51b815260206004820152601d60248201527f507269636550726f76696465722061646472657373206973207a65726f000000604482015290519081900360640190fd5b6001600160a01b038216610d61576040805162461bcd60e51b81526020600482015260146024820152736f5553442061646472657373206973207a65726f60601b604482015290519081900360640190fd5b603c80546001600160a01b038085166001600160a01b0319928316179092556037805461ffff60a01b1993871692169190911791909116600160a81b1790556000603881905560395569054b40b1f852bda00000603a55683635c9adc5dea00000603b558015610dd7576000805461ff00191690555b505050565b6042546001600160a01b031681565b603b5481565b603754600160a01b900460ff1681565b603f546001600160a01b031681565b610e18612405565b6001600160a01b0316336001600160a01b031614610e675760405162461bcd60e51b81526004018080602001828103825260308152602001806138e36030913960400191505060405180910390fd5b610e703361242a565b565b6000610e7d826124d8565b92915050565b610e8b61136f565b610ed9576040805162461bcd60e51b815260206004820152601a60248201527921b0b63632b91034b9903737ba103a34329023b7bb32b93737b960311b604482015290519081900360640190fd5b604155565b6060610e7d82612699565b603754600160a81b900460ff1615610f39576040805162461bcd60e51b815260206004820152600e60248201526d10d85c1a5d185b081c185d5cd95960921b604482015290519081900360640190fd5b6000805160206137db83398151915280546002811415610f91576040805162461bcd60e51b815260206004820152600e60248201526d1499595b9d1c985b9d0818d85b1b60921b604482015290519081900360640190fd5b60028255603b54603c54604080516370a0823160e01b815233600482015290516001600160a01b03909216916370a0823191602480820192602092909190829003018186803b158015610fe357600080fd5b505afa158015610ff7573d6000803e3d6000fd5b505050506040513d602081101561100d57600080fd5b50511180156110265750603754600160a01b900460ff16155b1561103357611033611b56565b603c54604080516370a0823160e01b815233600482015290516110b1926001600160a01b0316916370a08231916024808301926020929190829003018186803b15801561107f57600080fd5b505afa158015611093573d6000803e3d6000fd5b505050506040513d60208110156110a957600080fd5b50518461295a565b506001905550565b603754600160a81b900460ff1615611109576040805162461bcd60e51b815260206004820152600e60248201526d10d85c1a5d185b081c185d5cd95960921b604482015290519081900360640190fd5b6000805160206137db83398151915280546002811415611161576040805162461bcd60e51b815260206004820152600e60248201526d1499595b9d1c985b9d0818d85b1b60921b604482015290519081900360640190fd5b60028255603b54841180156111805750603754600160a01b900460ff16155b1561118d5761118d611b56565b611197848461295a565b50600190555050565b60415481565b6001600160a01b031660009081526033602052604090205460ff1690565b603a5481565b60345490565b6040602081905260009182529020546001600160a01b031681565b603754600160a81b900460ff161561123b576040805162461bcd60e51b815260206004820152600e60248201526d10d85c1a5d185b081c185d5cd95960921b604482015290519081900360640190fd5b6000805160206137db83398151915280546002811415611293576040805162461bcd60e51b815260206004820152600e60248201526d1499595b9d1c985b9d0818d85b1b60921b604482015290519081900360640190fd5b6002825561129f611edc565b5060019055565b603754600160a01b900460ff16156112f7576040805162461bcd60e51b815260206004820152600f60248201526e149958985cda5b99c81c185d5cd959608a1b604482015290519081900360640190fd5b6000805160206137db8339815191528054600281141561134f576040805162461bcd60e51b815260206004820152600e60248201526d1499595b9d1c985b9d0818d85b1b60921b604482015290519081900360640190fd5b6002825561129f611b56565b6037546001600160a01b031681565b604455565b60006113796119ef565b6001600160a01b0316336001600160a01b031614905090565b61139a61136f565b6113e8576040805162461bcd60e51b815260206004820152601a60248201527921b0b63632b91034b9903737ba103a34329023b7bb32b93737b960311b604482015290519081900360640190fd5b6113f181612f04565b806001600160a01b03166114036119ef565b6001600160a01b03167fa39cc5eb22d0f34d8beaefee8a3f17cc229c1a1d1ef87a5ad47313487b1c4f0d60405160405180910390a350565b60445490565b603754600160a81b900460ff1681565b603754600160a81b900460ff16156114a1576040805162461bcd60e51b815260206004820152600e60248201526d10d85c1a5d185b081c185d5cd95960921b604482015290519081900360640190fd5b6000805160206137db833981519152805460028114156114f9576040805162461bcd60e51b815260206004820152600e60248201526d1499595b9d1c985b9d0818d85b1b60921b604482015290519081900360640190fd5b60028255858414611551576040805162461bcd60e51b815260206004820152601960248201527f506172616d65746572206c656e677468206d69736d6174636800000000000000604482015290519081900360640190fd5b600080606061155f82612f28565b905060005b8981101561177d57603360008c8c8481811061157c57fe5b602090810292909201356001600160a01b03168352508101919091526040016000205460ff166115ec576040805162461bcd60e51b8152602060048201526016602482015275105cdcd95d081a5cc81b9bdd081cdd5c1c1bdc9d195960521b604482015290519081900360640190fd5b60008989838181106115fa57fe5b9050602002013511611653576040805162461bcd60e51b815260206004820152601d60248201527f416d6f756e74206d7573742062652067726561746572207468616e2030000000604482015290519081900360640190fd5b60005b603454811015611774576034818154811061166d57fe5b6000918252602090912001546001600160a01b03168c8c8481811061168e57fe5b905060200201356001600160a01b03166001600160a01b0316141561176c5760006116d9603483815481106116bf57fe5b6000918252602090912001546001600160a01b0316611a14565b905060008483815181106116e957fe5b6020026020010151905061172b61171e836012038e8e8881811061170957fe5b90506020020135611ace90919063ffffffff16565b889063ffffffff61302f16565b965061176761175a8284600a0a8f8f8981811061174457fe5b90506020020135611b289092919063ffffffff16565b879063ffffffff61302f16565b955050505b600101611656565b50600101611564565b5085156117d957858210156117d9576040805162461bcd60e51b815260206004820152601e60248201527f4d696e7420616d6f756e74206c6f776572207468616e206d696e696d756d0000604482015290519081900360640190fd5b604080513381526020810184905281517f0f6798a560793a54c3bcfe86a93cde1e73087d944c0ea20544137d4121396885929181900390910190a1603b5483101580156118305750603754600160a01b900460ff16155b1561183d5761183d611b56565b603c54604080516340c10f1960e01b81523360048201526024810185905290516001600160a01b03909216916340c10f199160448082019260009290919082900301818387803b15801561189057600080fd5b505af11580156118a4573d6000803e3d6000fd5b506000925050505b8981101561190f5760008b8b838181106118c257fe5b905060200201356001600160a01b0316905061190633308c8c868181106118e557fe5b90506020020135846001600160a01b0316611e7c909392919063ffffffff16565b506001016118ac565b50603a54831061192157611921611edc565b5050506001825550505050505050565b61193961136f565b611987576040805162461bcd60e51b815260206004820152601a60248201527921b0b63632b91034b9903737ba103a34329023b7bb32b93737b960311b604482015290519081900360640190fd5b61199081613090565b6119cb5760405162461bcd60e51b81526004018080602001828103825260248152602001806137fb6024913960400191505060405180910390fd5b7fa2bd3d3cf188a41358c8b401076eb59066b09dec5775650c0de4c55187d17bd955565b7f7bea13895fa79d2831e0a9e28edede30099005a50d652d8957cf8a607ee6ca4a5490565b600080826001600160a01b031663313ce5676040518163ffffffff1660e01b815260040160206040518083038186803b158015611a5057600080fd5b505afa158015611a64573d6000803e3d6000fd5b505050506040513d6020811015611a7a57600080fd5b505160ff16905060048110801590611a93575060128111155b610e7d5760405162461bcd60e51b815260040180806020018281038252602981526020018061381f6029913960400191505060405180910390fd5b6000808260000b1315611af957611af283600084900b600a0a63ffffffff6130cc16565b9250611b21565b60008260000b1215611b2157611b1e836000848103900b600a0a63ffffffff61312516565b92505b5090919050565b600080611b3b858563ffffffff6130cc16565b9050611b4d818463ffffffff61312516565b95945050505050565b603754600160a01b900460ff1615611ba7576040805162461bcd60e51b815260206004820152600f60248201526e149958985cda5b99c81c185d5cd959608a1b604482015290519081900360640190fd5b603c54604080516318160ddd60e01b815290516000926001600160a01b0316916318160ddd916004808301926020929190829003018186803b158015611bec57600080fd5b505afa158015611c00573d6000803e3d6000fd5b505050506040513d6020811015611c1657600080fd5b5051905080611c255750610e70565b6000611c2f61143b565b6042549091506001600160a01b03168015801590611c4c57508282115b15611d8e576000611c63838563ffffffff61316716565b90506000611c8e612710611c82604354856130cc90919063ffffffff16565b9063ffffffff61312516565b9050808211611cce5760405162461bcd60e51b81526004018080602001828103825260228152602001806138976022913960400191505060405180910390fd5b8015611d4257603c54604080516340c10f1960e01b81526001600160a01b03868116600483015260248201859052915191909216916340c10f1991604480830192600092919082900301818387803b158015611d2957600080fd5b505af1158015611d3d573d6000803e3d6000fd5b505050505b604080516001600160a01b03851681526020810184905280820183905290517f09516ecf4a8a86e59780a9befc6dee948bc9e60a36e3be68d31ea817ee8d2c809181900360600190a150505b603c60009054906101000a90046001600160a01b03166001600160a01b03166318160ddd6040518163ffffffff1660e01b815260040160206040518083038186803b158015611ddc57600080fd5b505afa158015611df0573d6000803e3d6000fd5b505050506040513d6020811015611e0657600080fd5b5051925082821115610dd757603c54604080516339a7919f60e01b81526004810185905290516001600160a01b03909216916339a7919f9160248082019260009290919082900301818387803b158015611e5f57600080fd5b505af1158015611e73573d6000803e3d6000fd5b50505050505050565b604080516001600160a01b0385811660248301528416604482015260648082018490528251808303909101815260849091019091526020810180516001600160e01b03166323b872dd60e01b179052611ed69085906131a9565b50505050565b6000611ee6613361565b905080611ef35750610e70565b6000611efd613451565b90506000611f11838363ffffffff61302f16565b9050600082611f3d57603954611f3690670de0b6b3a76400009063ffffffff61316716565b9050611f89565b611f5684611c82846039546130cc90919063ffffffff16565b905080670de0b6b3a76400001115611f8057611f36670de0b6b3a76400008263ffffffff61316716565b50505050610e70565b80611f975750505050610e70565b60005b60345481101561212657600060348281548110611fb357fe5b6000918252602080832090910154604080516370a0823160e01b815230600482015290516001600160a01b03909216945084926370a0823192602480840193829003018186803b15801561200657600080fd5b505afa15801561201a573d6000803e3d6000fd5b505050506040513d602081101561203057600080fd5b505190508061204057505061211e565b6000612052828663ffffffff6134a316565b6001600160a01b0380851660009081526040602081905290205491925016801580159061207f5750600082115b15612119578061209f6001600160a01b038616828563ffffffff6134b816565b806001600160a01b03166347e7ef2486856040518363ffffffff1660e01b815260040180836001600160a01b03166001600160a01b0316815260200182815260200192505050600060405180830381600087803b1580156120ff57600080fd5b505af1158015612113573d6000803e3d6000fd5b50505050505b505050505b600101611f9a565b5060005b6036548110156123f85760006036828154811061214357fe5b60009182526020808320909101546040805163125f9e3360e01b815290516001600160a01b039092169450849263125f9e3392600480840193829003018186803b15801561219057600080fd5b505afa1580156121a4573d6000803e3d6000fd5b505050506040513d60208110156121ba57600080fd5b505190506001600160a01b038116156123ee576000826001600160a01b0316635653b4146040518163ffffffff1660e01b815260040160206040518083038186803b15801561220857600080fd5b505afa15801561221c573d6000803e3d6000fd5b505050506040513d602081101561223257600080fd5b50519050806122c157306001600160a01b0316630e5c011e6036868154811061225757fe5b6000918252602082200154604080516001600160e01b031960e086901b1681526001600160a01b039092166004830152516024808301939282900301818387803b1580156122a457600080fd5b505af11580156122b8573d6000803e3d6000fd5b505050506123ec565b60008290506000816001600160a01b03166370a08231603688815481106122e457fe5b60009182526020918290200154604080516001600160e01b031960e086901b1681526001600160a01b0390921660048301525160248083019392829003018186803b15801561233257600080fd5b505afa158015612346573d6000803e3d6000fd5b505050506040513d602081101561235c57600080fd5b505190508281106123e957306001600160a01b0316630e5c011e6036888154811061238357fe5b6000918252602082200154604080516001600160e01b031960e086901b1681526001600160a01b039092166004830152516024808301939282900301818387803b1580156123d057600080fd5b505af11580156123e4573d6000803e3d6000fd5b505050505b50505b505b505060010161212a565b5050505050565b303b1590565b7f44c4d30b2eaad5130ad70c3ba6972730566f3e6359ab83e800d905c61b1c51db5490565b6001600160a01b038116612485576040805162461bcd60e51b815260206004820152601a60248201527f4e657720476f7665726e6f722069732061646472657373283029000000000000604482015290519081900360640190fd5b806001600160a01b03166124976119ef565b6001600160a01b03167fc7c0c772add429241571afb3805861fb3cfa2af374534088b76cdb4325a87e9a60405160405180910390a36124d58161350a565b50565b604080516370a0823160e01b8152306004820152905160009183916001600160a01b038316916370a08231916024808301926020929190829003018186803b15801561252357600080fd5b505afa158015612537573d6000803e3d6000fd5b505050506040513d602081101561254d57600080fd5b5051915060005b6036548110156126925760006036828154811061256d57fe5b600091825260209182902001546040805163551c457b60e11b81526001600160a01b0389811660048301529151919092169350839263aa388af69260248082019391829003018186803b1580156125c357600080fd5b505afa1580156125d7573d6000803e3d6000fd5b505050506040513d60208110156125ed57600080fd5b50511561268957612686816001600160a01b0316635f515226876040518263ffffffff1660e01b815260040180826001600160a01b03166001600160a01b0316815260200191505060206040518083038186803b15801561264d57600080fd5b505afa158015612661573d6000803e3d6000fd5b505050506040513d602081101561267757600080fd5b5051859063ffffffff61302f16565b93505b50600101612554565b5050919050565b606060006126a56111ca565b905060606126b36001612f28565b90506060826040519080825280602002602001820160405280156126e1578160200160208202803883390190505b509050606083604051908082528060200260200182016040528015612710578160200160208202803883390190505b506040805186815260208088028201019091529091506000908190868015612742578160200160208202803883390190505b506038549097501561278157600061276b612710611c826038548c6130cc90919063ffffffff16565b905061277d898263ffffffff61316716565b9850505b60005b6034548110156128315760006127ba603483815481106127a057fe5b6000918252602090912001546001600160a01b03166124d8565b905060006127ce603484815481106116bf57fe5b9050818784815181106127dd57fe5b602002602001018181525050808684815181106127f657fe5b602090810291909101015261282561281883601284900363ffffffff611ace16565b869063ffffffff61302f16565b94505050600101612784565b5060005b6034548110156128e257600086828151811061284d57fe5b60200260200101519050670de0b6b3a76400008110156128725750670de0b6b3a76400005b60006128c485611c82846128b88a888151811061288b57fe5b60200260200101516012038c89815181106128a257fe5b6020026020010151611ace90919063ffffffff16565b9063ffffffff6130cc16565b90506128d6848263ffffffff61302f16565b93505050600101612835565b5060006128f5898363ffffffff61352e16565b905060005b60345481101561294d5761292e84611c828489858151811061291857fe5b60200260200101516130cc90919063ffffffff16565b89828151811061293a57fe5b60209081029190910101526001016128fa565b5050505050505050919050565b600082116129af576040805162461bcd60e51b815260206004820152601d60248201527f416d6f756e74206d7573742062652067726561746572207468616e2030000000604482015290519081900360640190fd5b603c54604080516318160ddd60e01b815290516000926001600160a01b0316916318160ddd916004808301926020929190829003018186803b1580156129f457600080fd5b505afa158015612a08573d6000803e3d6000fd5b505050506040513d6020811015612a1e57600080fd5b505190506000612a2c61143b565b60415490915015612ae7576000612a49838363ffffffff61352e16565b9050604154670de0b6b3a76400008211612a7a57612a75670de0b6b3a76400008363ffffffff61316716565b612a92565b612a9282670de0b6b3a764000063ffffffff61316716565b1115612ae5576040805162461bcd60e51b815260206004820152601e60248201527f4261636b696e6720737570706c79206c6971756964697479206572726f720000604482015290519081900360640190fd5b505b604080513381526020810186905281517f222838db2794d11532d940e8dec38ae307ed0b63cd97c233322e221f998767a6929181900390910190a16060612b2d85612699565b905060005b603454811015612dc357818181518110612b4857fe5b602002602001015160001415612b5d57612dbb565b600060348281548110612b6c57fe5b60009182526020909120015483516001600160a01b039091169150839083908110612b9357fe5b6020026020010151816001600160a01b03166370a08231306040518263ffffffff1660e01b815260040180826001600160a01b03166001600160a01b0316815260200191505060206040518083038186803b158015612bf157600080fd5b505afa158015612c05573d6000803e3d6000fd5b505050506040513d6020811015612c1b57600080fd5b505110612c5857612c5333848481518110612c3257fe5b6020026020010151836001600160a01b03166134b89092919063ffffffff16565b612db9565b60006040600060348581548110612c6b57fe5b60009182526020808320909101546001600160a01b0390811684529083019390935260409091019020541690508015612d78576000819050806001600160a01b031663d9caed123360348781548110612cc057fe5b9060005260206000200160009054906101000a90046001600160a01b0316888881518110612cea57fe5b60200260200101516040518463ffffffff1660e01b815260040180846001600160a01b03166001600160a01b03168152602001836001600160a01b03166001600160a01b031681526020018281526020019350505050600060405180830381600087803b158015612d5a57600080fd5b505af1158015612d6e573d6000803e3d6000fd5b5050505050612db7565b6040805162461bcd60e51b815260206004820152600f60248201526e2634b8bab4b234ba3c9032b93937b960891b604482015290519081900360640190fd5b505b505b600101612b32565b508315612e71576000805b8251811015612e19576000612de9603483815481106116bf57fe5b9050612e0e612e01826012038685815181106128a257fe5b849063ffffffff61302f16565b925050600101612dce565b5084811015612e6f576040805162461bcd60e51b815260206004820181905260248201527f52656465656d20616d6f756e74206c6f776572207468616e206d696e696d756d604482015290519081900360640190fd5b505b603c5460408051632770a7eb60e21b81523360048201526024810188905290516001600160a01b0390921691639dc29fac9160448082019260009290919082900301818387803b158015612ec457600080fd5b505af1158015612ed8573d6000803e3d6000fd5b50505050603b5485118015612ef75750603754600160a01b900460ff16155b156123f8576123f8611b56565b7f44c4d30b2eaad5130ad70c3ba6972730566f3e6359ab83e800d905c61b1c51db55565b6060612f326111ca565b604051908082528060200260200182016040528015612f5b578160200160208202803883390190505b506037549091506001600160a01b031660005b60345481101561269257816001600160a01b031663aea9107860348381548110612f9457fe5b60009182526020918290200154604080516001600160e01b031960e086901b1681526001600160a01b0390921660048301525160248083019392829003018186803b158015612fe257600080fd5b505afa158015612ff6573d6000803e3d6000fd5b505050506040513d602081101561300c57600080fd5b5051835184908390811061301c57fe5b6020908102919091010152600101612f6e565b600082820183811015613089576040805162461bcd60e51b815260206004820152601b60248201527f536166654d6174683a206164646974696f6e206f766572666c6f770000000000604482015290519081900360640190fd5b9392505050565b6000813f7fc5d2460186f7233c927e7db2dcc703c0e500b653ca82273b7bfad8045d85a4708181148015906130c457508115155b949350505050565b6000826130db57506000610e7d565b828202828482816130e857fe5b04146130895760405162461bcd60e51b81526004018080602001828103825260218152602001806138486021913960400191505060405180910390fd5b600061308983836040518060400160405280601a81526020017f536166654d6174683a206469766973696f6e206279207a65726f00000000000081525061355b565b600061308983836040518060400160405280601e81526020017f536166654d6174683a207375627472616374696f6e206f766572666c6f7700008152506135fd565b6131bb826001600160a01b0316613090565b61320c576040805162461bcd60e51b815260206004820152601f60248201527f5361666545524332303a2063616c6c20746f206e6f6e2d636f6e747261637400604482015290519081900360640190fd5b60006060836001600160a01b0316836040518082805190602001908083835b6020831061324a5780518252601f19909201916020918201910161322b565b6001836020036101000a0380198251168184511680821785525050505050509050019150506000604051808303816000865af19150503d80600081146132ac576040519150601f19603f3d011682016040523d82523d6000602084013e6132b1565b606091505b509150915081613308576040805162461bcd60e51b815260206004820181905260248201527f5361666545524332303a206c6f772d6c6576656c2063616c6c206661696c6564604482015290519081900360640190fd5b805115611ed65780806020019051602081101561332457600080fd5b5051611ed65760405162461bcd60e51b815260040180806020018281038252602a8152602001806138b9602a913960400191505060405180910390fd5b6000805b60345481101561344d5760006034828154811061337e57fe5b6000918252602082200154603480546001600160a01b0390921693506133a891859081106116bf57fe5b604080516370a0823160e01b815230600482015290519192506000916001600160a01b038516916370a08231916024808301926020929190829003018186803b1580156133f457600080fd5b505afa158015613408573d6000803e3d6000fd5b505050506040513d602081101561341e57600080fd5b5051905080156134425761343f61281882601285900363ffffffff611ace16565b94505b505050600101613365565b5090565b6000805b60365481101561344d5761349961348c6036838154811061347257fe5b6000918252602090912001546001600160a01b0316613657565b839063ffffffff61302f16565b9150600101613455565b60006130898383670de0b6b3a7640000611b28565b604080516001600160a01b038416602482015260448082018490528251808303909101815260649091019091526020810180516001600160e01b031663a9059cbb60e01b179052610dd79084906131a9565b7f7bea13895fa79d2831e0a9e28edede30099005a50d652d8957cf8a607ee6ca4a55565b60008061354984670de0b6b3a764000063ffffffff6130cc16565b90506130c4818463ffffffff61312516565b600081836135e75760405162461bcd60e51b81526004018080602001828103825283818151815260200191508051906020019080838360005b838110156135ac578181015183820152602001613594565b50505050905090810190601f1680156135d95780820380516001836020036101000a031916815260200191505b509250505060405180910390fd5b5060008385816135f357fe5b0495945050505050565b6000818484111561364f5760405162461bcd60e51b81526020600482018181528351602484015283519092839260449091019190850190808383600083156135ac578181015183820152602001613594565b505050900390565b600081815b603454811015612692576000613678603483815481106116bf57fe5b9050826001600160a01b031663aa388af66034848154811061369657fe5b60009182526020918290200154604080516001600160e01b031960e086901b1681526001600160a01b0390921660048301525160248083019392829003018186803b1580156136e457600080fd5b505afa1580156136f8573d6000803e3d6000fd5b505050506040513d602081101561370e57600080fd5b5051156137d1576000836001600160a01b0316635f5152266034858154811061373357fe5b60009182526020918290200154604080516001600160e01b031960e086901b1681526001600160a01b0390921660048301525160248083019392829003018186803b15801561378157600080fd5b505afa158015613795573d6000803e3d6000fd5b505050506040513d60208110156137ab57600080fd5b5051905080156137cf576137cc61281882601285900363ffffffff611ace16565b94505b505b5060010161365c56fe53bf423e48ed90e97d02ab0ebab13b2a235a6bfbe9c321847d5c175333ac45356e657720696d706c656d656e746174696f6e206973206e6f74206120636f6e7472616374546f6b656e206d75737420686176652073756666696369656e7420646563696d616c20706c61636573536166654d6174683a206d756c7469706c69636174696f6e206f766572666c6f77436f6e747261637420696e7374616e63652068617320616c7265616479206265656e20696e697469616c697a6564466565206d757374206e6f742062652067726561746572207468616e207969656c645361666545524332303a204552433230206f7065726174696f6e20646964206e6f7420737563636565644f6e6c79207468652070656e64696e6720476f7665726e6f722063616e20636f6d706c6574652074686520636c61696da265627a7a72315820a6b71556f93d2d6a7d81b2ae9b282e6ffcc258c0aa623cab03cddd13502b6d6a64736f6c634300050b00327bea13895fa79d2831e0a9e28edede30099005a50d652d8957cf8a607ee6ca4a",
  "devdoc": {
    "methods": {
      "allocate()": {
        "details": "Allocate unallocated funds on Vault to strategies.*"
      },
      "checkBalance(address)": {
        "params": {
          "_asset": "Address of asset"
        },
        "return": "uint256 Balance of asset in decimals of asset"
      },
      "claimGovernance()": {
        "details": "Claim Governance of the contract to a new account (`newGovernor`). Can only be called by the new Governor."
      },
      "getAllAssets()": {
        "details": "Return all asset addresses in order"
      },
      "getAssetCount()": {
        "details": "Return the number of assets suppported by the Vault."
      },
      "getStrategyCount()": {
        "details": "Return the number of strategies active on the Vault."
      },
      "governor()": {
        "details": "Returns the address of the current Governor."
      },
      "isGovernor()": {
        "details": "Returns true if the caller is the current Governor."
      },
      "mint(address,uint256,uint256)": {
        "details": "Deposit a supported asset and mint OUSD.",
        "params": {
          "_amount": "Amount of the asset being deposited",
          "_asset": "Address of the asset being deposited",
          "_minimumOusdAmount": "Minimum OUSD to mint"
        }
      },
      "mintMultiple(address[],uint256[],uint256)": {
        "details": "Mint for multiple assets in the same call.",
        "params": {
          "_amounts": "Amount of each asset at the same index in the _assets                to deposit.",
          "_assets": "Addresses of assets being deposited",
          "_minimumOusdAmount": "Minimum OUSD to mint"
        }
      },
      "rebase()": {
        "details": "Calculate the total value of assets held by the Vault and all     strategies and update the supply of OUSD."
      },
      "redeem(uint256,uint256)": {
        "details": "Withdraw a supported asset and burn OUSD.",
        "params": {
          "_amount": "Amount of OUSD to burn",
          "_minimumUnitAmount": "Minimum stablecoin units to receive in return"
        }
      },
      "redeemAll(uint256)": {
        "params": {
          "_minimumUnitAmount": "Minimum stablecoin units to receive in return"
        }
      },
      "setAdminImpl(address)": {
        "details": "set the implementation for the admin, this needs to be in a base class else we cannot set it",
        "params": {
          "newImpl": "address of the implementation"
        }
      },
      "transferGovernance(address)": {
        "details": "Transfers Governance of the contract to a new account (`newGovernor`). Can only be called by the current Governor. Must be claimed for this to complete",
        "params": {
          "_newGovernor": "Address of the new Governor"
        }
      }
    }
  },
  "userdoc": {
    "methods": {
      "allocate()": {
        "notice": "Allocate unallocated funds on Vault to strategies."
      },
      "calculateRedeemOutputs(uint256)": {
        "notice": "Calculate the outputs for a redeem function, i.e. the mix of coins that will be returned"
      },
      "checkBalance(address)": {
        "notice": "Get the balance of an asset held in Vault and all strategies."
      },
      "redeemAll(uint256)": {
        "notice": "Withdraw a supported asset and burn all OUSD."
      }
    }
  }
}