{
  "address": "0x6FeCA6009Be23Eb9cF0EE9520a2e911923A9d8Cd",
  "abi": [
    {
      "constant": true,
      "inputs": [
        {
          "internalType": "address",
          "name": "",
          "type": "address"
        }
      ],
      "name": "rewards",
      "outputs": [
        {
          "internalType": "uint256",
          "name": "",
          "type": "uint256"
        }
      ],
      "payable": false,
      "stateMutability": "view",
      "type": "function"
    },
    {
      "constant": false,
      "inputs": [
        {
          "internalType": "uint256",
          "name": "amount",
          "type": "uint256"
        }
      ],
      "name": "withdraw",
      "outputs": [],
      "payable": false,
      "stateMutability": "nonpayable",
      "type": "function"
    },
    {
      "constant": false,
      "inputs": [],
      "name": "getReward",
      "outputs": [],
      "payable": false,
      "stateMutability": "nonpayable",
      "type": "function"
    },
    {
      "constant": true,
      "inputs": [
        {
          "internalType": "address",
          "name": "account",
          "type": "address"
        }
      ],
      "name": "balanceOf",
      "outputs": [
        {
          "internalType": "uint256",
          "name": "",
          "type": "uint256"
        }
      ],
      "payable": false,
      "stateMutability": "view",
      "type": "function"
    },
    {
      "constant": true,
      "inputs": [],
      "name": "stakingToken",
      "outputs": [
        {
          "internalType": "contract IERC20",
          "name": "",
          "type": "address"
        }
      ],
      "payable": false,
      "stateMutability": "view",
      "type": "function"
    },
    {
      "constant": true,
      "inputs": [],
      "name": "rewardsToken1",
      "outputs": [
        {
          "internalType": "contract IERC20",
          "name": "",
          "type": "address"
        }
      ],
      "payable": false,
      "stateMutability": "view",
      "type": "function"
    },
    {
      "constant": false,
      "inputs": [
        {
          "internalType": "uint256",
          "name": "amount",
          "type": "uint256"
        }
      ],
      "name": "stake",
      "outputs": [],
      "payable": false,
      "stateMutability": "nonpayable",
      "type": "function"
    },
    {
      "constant": true,
      "inputs": [],
      "name": "rewardsToken0",
      "outputs": [
        {
          "internalType": "contract IERC20",
          "name": "",
          "type": "address"
        }
      ],
      "payable": false,
      "stateMutability": "view",
      "type": "function"
    },
    {
      "constant": true,
      "inputs": [],
      "name": "rewardPerToken",
      "outputs": [
        {
          "internalType": "uint256",
          "name": "",
          "type": "uint256"
        }
      ],
      "payable": false,
      "stateMutability": "view",
      "type": "function"
    },
    {
      "inputs": [
        {
          "internalType": "address",
          "name": "_rewardsToken0",
          "type": "address"
        },
        {
          "internalType": "address",
          "name": "_rewardsToken1",
          "type": "address"
        },
        {
          "internalType": "address",
          "name": "_stakingToken",
          "type": "address"
        }
      ],
      "payable": false,
      "stateMutability": "nonpayable",
      "type": "constructor"
    }
  ],
  "transactionHash": "0x174941e4103a8afb34dc921d06af318b219c973013d2c9bfe380aa82cbb98a68",
  "args": [
    "0x14f6392a624E1FCD651c688582a3051157635510",
    "0x4BBf3bD45128195111F6E93035e3F199Ba376f3B",
    "0xD3D03c681f3E4408600a7fd9c7f94c1f942d3A6D"
  ],
  "solcInputHash": "19f61395f16c024a9cec84b97c17c7b9",
  "bytecode": "0x6080604052600160035534801561001557600080fd5b50604051610a5d380380610a5d8339818101604052606081101561003857600080fd5b5080516020820151604090920151600080546001600160a01b039384166001600160a01b03199182161790915560018054948416948216949094179093556002805492909116919092161790556109c9806100946000396000f3fe608060405234801561001057600080fd5b50600436106100935760003560e01c806372f702f31161006657806372f702f31461011d5780638950b9a614610141578063a694fc3a14610149578063c69fd22214610166578063cd3daf9d1461016e57610093565b80630700037d146100985780632e1a7d4d146100d05780633d18b912146100ef57806370a08231146100f7575b600080fd5b6100be600480360360208110156100ae57600080fd5b50356001600160a01b0316610176565b60408051918252519081900360200190f35b6100ed600480360360208110156100e657600080fd5b5035610188565b005b6100ed610236565b6100be6004803603602081101561010d57600080fd5b50356001600160a01b03166103a7565b6101256103c2565b604080516001600160a01b039092168252519081900360200190f35b6101256103d1565b6100ed6004803603602081101561015f57600080fd5b50356103e0565b6101256104c9565b6100be6104d8565b60046020526000908152604090205481565b600081116101d1576040805162461bcd60e51b8152602060048201526011602482015270043616e6e6f74207769746864726177203607c1b604482015290519081900360640190fd5b6005546101e4908263ffffffff6104de16565b60055533600090815260066020526040902054610207908263ffffffff6104de16565b33600081815260066020526040902091909155600254610233916001600160a01b039091169083610527565b50565b336000908152600460205260409020548015610233573360009081526004602052604090205461026d90600263ffffffff61057e16565b336000908152600460208181526040808420949094558254845163140e25ad60e31b815292830186905293516001600160a01b039094169363a0712d68936024808501948390030190829087803b1580156102c757600080fd5b505af11580156102db573d6000803e3d6000fd5b505050506040513d60208110156102f157600080fd5b50506001546040805163140e25ad60e31b81526004810184905290516001600160a01b039092169163a0712d68916024808201926020929091908290030181600087803b15801561034157600080fd5b505af1158015610355573d6000803e3d6000fd5b505050506040513d602081101561036b57600080fd5b505060005461038a906001600160a01b0316338363ffffffff61052716565b600154610233906001600160a01b0316338363ffffffff61052716565b6001600160a01b031660009081526006602052604090205490565b6002546001600160a01b031681565b6001546001600160a01b031681565b60008111610426576040805162461bcd60e51b815260206004820152600e60248201526d043616e6e6f74207374616b6520360941b604482015290519081900360640190fd5b600554610439908263ffffffff6105c016565b6005553360009081526006602052604090205461045c908263ffffffff6105c016565b3360009081526006602052604090205561049c61048082606463ffffffff61057e16565b336000908152600460205260409020549063ffffffff6105c016565b33600081815260046020526040902091909155600254610233916001600160a01b0390911690308461061a565b6000546001600160a01b031681565b60035481565b600061052083836040518060400160405280601e81526020017f536166654d6174683a207375627472616374696f6e206f766572666c6f77000081525061067a565b9392505050565b604080516001600160a01b038416602482015260448082018490528251808303909101815260649091019091526020810180516001600160e01b031663a9059cbb60e01b179052610579908490610711565b505050565b600061052083836040518060400160405280601a81526020017f536166654d6174683a206469766973696f6e206279207a65726f0000000000008152506108c9565b600082820183811015610520576040805162461bcd60e51b815260206004820152601b60248201527f536166654d6174683a206164646974696f6e206f766572666c6f770000000000604482015290519081900360640190fd5b604080516001600160a01b0385811660248301528416604482015260648082018490528251808303909101815260849091019091526020810180516001600160e01b03166323b872dd60e01b179052610674908590610711565b50505050565b600081848411156107095760405162461bcd60e51b81526004018080602001828103825283818151815260200191508051906020019080838360005b838110156106ce5781810151838201526020016106b6565b50505050905090810190601f1680156106fb5780820380516001836020036101000a031916815260200191505b509250505060405180910390fd5b505050900390565b610723826001600160a01b031661092e565b610774576040805162461bcd60e51b815260206004820152601f60248201527f5361666545524332303a2063616c6c20746f206e6f6e2d636f6e747261637400604482015290519081900360640190fd5b60006060836001600160a01b0316836040518082805190602001908083835b602083106107b25780518252601f199092019160209182019101610793565b6001836020036101000a0380198251168184511680821785525050505050509050019150506000604051808303816000865af19150503d8060008114610814576040519150601f19603f3d011682016040523d82523d6000602084013e610819565b606091505b509150915081610870576040805162461bcd60e51b815260206004820181905260248201527f5361666545524332303a206c6f772d6c6576656c2063616c6c206661696c6564604482015290519081900360640190fd5b8051156106745780806020019051602081101561088c57600080fd5b50516106745760405162461bcd60e51b815260040180806020018281038252602a81526020018061096b602a913960400191505060405180910390fd5b600081836109185760405162461bcd60e51b81526020600482018181528351602484015283519092839260449091019190850190808383600083156106ce5781810151838201526020016106b6565b50600083858161092457fe5b0495945050505050565b6000813f7fc5d2460186f7233c927e7db2dcc703c0e500b653ca82273b7bfad8045d85a47081811480159061096257508115155b94935050505056fe5361666545524332303a204552433230206f7065726174696f6e20646964206e6f742073756363656564a265627a7a723158206c52774e75aa2ded9446f523b25f59b5cc990c084fdd20d127bf129bbe4ec24464736f6c634300050b0032",
  "devdoc": {
    "methods": {}
  },
  "userdoc": {
    "methods": {}
  }
}