{
  "address": "0x03E62E1758f8E8735a100B316EDc50421132aAaf",
  "abi": [
    {
      "constant": true,
      "inputs": [
        {
          "internalType": "address",
          "name": "account",
          "type": "address"
        }
      ],
      "name": "earned",
      "outputs": [
        {
          "internalType": "uint256",
          "name": "",
          "type": "uint256"
        }
      ],
      "payable": false,
      "stateMutability": "view",
      "type": "function"
    },
    {
      "constant": true,
      "inputs": [
        {
          "internalType": "address",
          "name": "",
          "type": "address"
        }
      ],
      "name": "rewards",
      "outputs": [
        {
          "internalType": "uint256",
          "name": "",
          "type": "uint256"
        }
      ],
      "payable": false,
      "stateMutability": "view",
      "type": "function"
    },
    {
      "constant": false,
      "inputs": [
        {
          "internalType": "uint256",
          "name": "amount",
          "type": "uint256"
        }
      ],
      "name": "withdraw",
      "outputs": [],
      "payable": false,
      "stateMutability": "nonpayable",
      "type": "function"
    },
    {
      "constant": false,
      "inputs": [],
      "name": "getReward",
      "outputs": [],
      "payable": false,
      "stateMutability": "nonpayable",
      "type": "function"
    },
    {
      "constant": true,
      "inputs": [
        {
          "internalType": "address",
          "name": "account",
          "type": "address"
        }
      ],
      "name": "balanceOf",
      "outputs": [
        {
          "internalType": "uint256",
          "name": "",
          "type": "uint256"
        }
      ],
      "payable": false,
      "stateMutability": "view",
      "type": "function"
    },
    {
      "constant": true,
      "inputs": [],
      "name": "stakingToken",
      "outputs": [
        {
          "internalType": "contract IERC20",
          "name": "",
          "type": "address"
        }
      ],
      "payable": false,
      "stateMutability": "view",
      "type": "function"
    },
    {
      "constant": false,
      "inputs": [
        {
          "internalType": "uint256",
          "name": "amount",
          "type": "uint256"
        }
      ],
      "name": "stake",
      "outputs": [],
      "payable": false,
      "stateMutability": "nonpayable",
      "type": "function"
    },
    {
      "constant": true,
      "inputs": [],
      "name": "rewardPerToken",
      "outputs": [
        {
          "internalType": "uint256",
          "name": "",
          "type": "uint256"
        }
      ],
      "payable": false,
      "stateMutability": "view",
      "type": "function"
    },
    {
      "constant": true,
      "inputs": [],
      "name": "rewardsToken",
      "outputs": [
        {
          "internalType": "contract IERC20",
          "name": "",
          "type": "address"
        }
      ],
      "payable": false,
      "stateMutability": "view",
      "type": "function"
    },
    {
      "constant": false,
      "inputs": [],
      "name": "exit",
      "outputs": [],
      "payable": false,
      "stateMutability": "nonpayable",
      "type": "function"
    },
    {
      "inputs": [
        {
          "internalType": "address",
          "name": "_rewardsToken",
          "type": "address"
        },
        {
          "internalType": "address",
          "name": "_stakingToken",
          "type": "address"
        }
      ],
      "payable": false,
      "stateMutability": "nonpayable",
      "type": "constructor"
    }
  ],
  "transactionHash": "0x1d283af692fbc85f3c71d69b45260955d930959ec709def3b06042772f7a67ad",
  "args": [
    "0xA786581d2945E247BfA92b21626b07989Cb8E600",
    "0xCDCB6Fac74AE22cef5b65ccFc4d11F20a75Ae63a"
  ],
  "solcInputHash": "a361d02ba9271b73a633ef727a1ec95a",
  "bytecode": "0x6080604052600160025534801561001557600080fd5b506040516109f33803806109f38339818101604052604081101561003857600080fd5b508051602090910151600080546001600160a01b039384166001600160a01b031991821617909155600180549390921692169190911790556109748061007f6000396000f3fe608060405234801561001057600080fd5b506004361061009d5760003560e01c806372f702f31161006657806372f702f31461014d578063a694fc3a14610171578063cd3daf9d1461018e578063d1af0c7d14610196578063e9fad8ee1461019e5761009d565b80628cc262146100a25780630700037d146100da5780632e1a7d4d146101005780633d18b9121461011f57806370a0823114610127575b600080fd5b6100c8600480360360208110156100b857600080fd5b50356001600160a01b03166101a6565b60408051918252519081900360200190f35b6100c8600480360360208110156100f057600080fd5b50356001600160a01b03166101f4565b61011d6004803603602081101561011657600080fd5b5035610206565b005b61011d6102b4565b6100c86004803603602081101561013d57600080fd5b50356001600160a01b03166102f3565b61015561030e565b604080516001600160a01b039092168252519081900360200190f35b61011d6004803603602081101561018757600080fd5b503561031d565b6100c86103d7565b6101556103dd565b61011d6103ec565b6002546001600160a01b03821660009081526005602052604081205490916101ee91670de0b6b3a7640000916101e2919063ffffffff61040f16565b9063ffffffff61046f16565b92915050565b60036020526000908152604090205481565b6000811161024f576040805162461bcd60e51b8152602060048201526011602482015270043616e6e6f74207769746864726177203607c1b604482015290519081900360640190fd5b600454610262908263ffffffff6104b116565b60045533600090815260056020526040902054610285908263ffffffff6104b116565b336000818152600560205260409020919091556001546102b1916001600160a01b0390911690836104f3565b50565b3360009081526003602052604090205480156102b157336000818152600360205260408120819055546102b1916001600160a01b0390911690836104f3565b6001600160a01b031660009081526005602052604090205490565b6001546001600160a01b031681565b60008111610363576040805162461bcd60e51b815260206004820152600e60248201526d043616e6e6f74207374616b6520360941b604482015290519081900360640190fd5b600454610376908263ffffffff61054a16565b60045533600090815260056020526040902054610399908263ffffffff61054a16565b3360008181526005602090815260408083209490945560039052919091208054830190556001546102b1916001600160a01b039091169030846105a4565b60025481565b6000546001600160a01b031681565b3360009081526005602052604090205461040590610206565b61040d6102b4565b565b60008261041e575060006101ee565b8282028284828161042b57fe5b04146104685760405162461bcd60e51b81526004018080602001828103825260218152602001806108f56021913960400191505060405180910390fd5b9392505050565b600061046883836040518060400160405280601a81526020017f536166654d6174683a206469766973696f6e206279207a65726f000000000000815250610604565b600061046883836040518060400160405280601e81526020017f536166654d6174683a207375627472616374696f6e206f766572666c6f7700008152506106a6565b604080516001600160a01b038416602482015260448082018490528251808303909101815260649091019091526020810180516001600160e01b031663a9059cbb60e01b179052610545908490610700565b505050565b600082820183811015610468576040805162461bcd60e51b815260206004820152601b60248201527f536166654d6174683a206164646974696f6e206f766572666c6f770000000000604482015290519081900360640190fd5b604080516001600160a01b0385811660248301528416604482015260648082018490528251808303909101815260849091019091526020810180516001600160e01b03166323b872dd60e01b1790526105fe908590610700565b50505050565b600081836106905760405162461bcd60e51b81526004018080602001828103825283818151815260200191508051906020019080838360005b8381101561065557818101518382015260200161063d565b50505050905090810190601f1680156106825780820380516001836020036101000a031916815260200191505b509250505060405180910390fd5b50600083858161069c57fe5b0495945050505050565b600081848411156106f85760405162461bcd60e51b815260206004820181815283516024840152835190928392604490910191908501908083836000831561065557818101518382015260200161063d565b505050900390565b610712826001600160a01b03166108b8565b610763576040805162461bcd60e51b815260206004820152601f60248201527f5361666545524332303a2063616c6c20746f206e6f6e2d636f6e747261637400604482015290519081900360640190fd5b60006060836001600160a01b0316836040518082805190602001908083835b602083106107a15780518252601f199092019160209182019101610782565b6001836020036101000a0380198251168184511680821785525050505050509050019150506000604051808303816000865af19150503d8060008114610803576040519150601f19603f3d011682016040523d82523d6000602084013e610808565b606091505b50915091508161085f576040805162461bcd60e51b815260206004820181905260248201527f5361666545524332303a206c6f772d6c6576656c2063616c6c206661696c6564604482015290519081900360640190fd5b8051156105fe5780806020019051602081101561087b57600080fd5b50516105fe5760405162461bcd60e51b815260040180806020018281038252602a815260200180610916602a913960400191505060405180910390fd5b6000813f7fc5d2460186f7233c927e7db2dcc703c0e500b653ca82273b7bfad8045d85a4708181148015906108ec57508115155b94935050505056fe536166654d6174683a206d756c7469706c69636174696f6e206f766572666c6f775361666545524332303a204552433230206f7065726174696f6e20646964206e6f742073756363656564a265627a7a723158209fb7da5601ee6f7ec70dbf82d1dd5026fb5bb08e9df3de397ddd220e32a33ebf64736f6c634300050b0032",
  "devdoc": {
    "methods": {}
  },
  "userdoc": {
    "methods": {}
  }
}