{
  "address": "0xdDbad2F6Ae864df786aCF66389De058C5E8DBa27",
  "abi": [
    {
      "constant": false,
      "inputs": [
        {
          "internalType": "uint256",
          "name": "amountIn",
          "type": "uint256"
        },
        {
          "internalType": "uint256",
          "name": "amountOutMin",
          "type": "uint256"
        },
        {
          "internalType": "address[]",
          "name": "path",
          "type": "address[]"
        },
        {
          "internalType": "address",
          "name": "to",
          "type": "address"
        },
        {
          "internalType": "uint256",
          "name": "deadline",
          "type": "uint256"
        }
      ],
      "name": "swapExactTokensForTokens",
      "outputs": [
        {
          "internalType": "uint256[]",
          "name": "amounts",
          "type": "uint256[]"
        }
      ],
      "payable": false,
      "stateMutability": "nonpayable",
      "type": "function"
    },
    {
      "constant": false,
      "inputs": [
        {
          "internalType": "address",
          "name": "_token0",
          "type": "address"
        },
        {
          "internalType": "address",
          "name": "_token1",
          "type": "address"
        }
      ],
      "name": "initialize",
      "outputs": [],
      "payable": false,
      "stateMutability": "nonpayable",
      "type": "function"
    },
    {
      "constant": true,
      "inputs": [],
      "name": "WETH",
      "outputs": [
        {
          "internalType": "address",
          "name": "",
          "type": "address"
        }
      ],
      "payable": false,
      "stateMutability": "view",
      "type": "function"
    },
    {
      "constant": false,
      "inputs": [
        {
          "internalType": "address",
          "name": "tokenA",
          "type": "address"
        },
        {
          "internalType": "address",
          "name": "tokenB",
          "type": "address"
        },
        {
          "internalType": "uint256",
          "name": "liquidity",
          "type": "uint256"
        },
        {
          "internalType": "uint256",
          "name": "amountAMin",
          "type": "uint256"
        },
        {
          "internalType": "uint256",
          "name": "amountBMin",
          "type": "uint256"
        },
        {
          "internalType": "address",
          "name": "to",
          "type": "address"
        },
        {
          "internalType": "uint256",
          "name": "deadline",
          "type": "uint256"
        }
      ],
      "name": "removeLiquidity",
      "outputs": [
        {
          "internalType": "uint256",
          "name": "amountA",
          "type": "uint256"
        },
        {
          "internalType": "uint256",
          "name": "amountB",
          "type": "uint256"
        }
      ],
      "payable": false,
      "stateMutability": "nonpayable",
      "type": "function"
    },
    {
      "constant": true,
      "inputs": [],
      "name": "factory",
      "outputs": [
        {
          "internalType": "address",
          "name": "",
          "type": "address"
        }
      ],
      "payable": false,
      "stateMutability": "pure",
      "type": "function"
    },
    {
      "constant": false,
      "inputs": [
        {
          "internalType": "address",
          "name": "tokenA",
          "type": "address"
        },
        {
          "internalType": "address",
          "name": "tokenB",
          "type": "address"
        },
        {
          "internalType": "uint256",
          "name": "amountADesired",
          "type": "uint256"
        },
        {
          "internalType": "uint256",
          "name": "amountBDesired",
          "type": "uint256"
        },
        {
          "internalType": "uint256",
          "name": "amountAMin",
          "type": "uint256"
        },
        {
          "internalType": "uint256",
          "name": "amountBMin",
          "type": "uint256"
        },
        {
          "internalType": "address",
          "name": "to",
          "type": "address"
        },
        {
          "internalType": "uint256",
          "name": "deadline",
          "type": "uint256"
        }
      ],
      "name": "addLiquidity",
      "outputs": [
        {
          "internalType": "uint256",
          "name": "amountA",
          "type": "uint256"
        },
        {
          "internalType": "uint256",
          "name": "amountB",
          "type": "uint256"
        },
        {
          "internalType": "uint256",
          "name": "liquidity",
          "type": "uint256"
        }
      ],
      "payable": false,
      "stateMutability": "nonpayable",
      "type": "function"
    }
  ],
  "transactionHash": "0x86c6f05b4c5258429934a523fb1abd4e216bf02668082d4f1c83bc3ff92d2c10",
  "args": [],
  "solcInputHash": "a361d02ba9271b73a633ef727a1ec95a",
  "bytecode": "0x6080604052600280546001600160a01b031916905534801561002057600080fd5b50610713806100306000396000f3fe608060405234801561001057600080fd5b50600436106100625760003560e01c806338ed173914610067578063485cc95514610142578063ad5c464814610172578063baa2abde14610196578063c45a0155146101ff578063e8e3370014610207575b600080fd5b6100f2600480360360a081101561007d57600080fd5b8135916020810135918101906060810160408201356401000000008111156100a457600080fd5b8201836020820111156100b657600080fd5b803590602001918460208302840111640100000000831117156100d857600080fd5b91935091506001600160a01b03813516906020013561027a565b60408051602080825283518183015283519192839290830191858101910280838360005b8381101561012e578181015183820152602001610116565b505050509050019250505060405180910390f35b6101706004803603604081101561015857600080fd5b506001600160a01b03813581169160200135166103d7565b005b61017a610405565b604080516001600160a01b039092168252519081900360200190f35b6101e6600480360360e08110156101ac57600080fd5b506001600160a01b038135811691602081013582169160408201359160608101359160808201359160a08101359091169060c00135610414565b6040805192835260208301919091528051918290030190f35b61017a610423565b61025c600480360361010081101561021e57600080fd5b506001600160a01b038135811691602081013582169160408201359160608101359160808201359160a08101359160c0820135169060e00135610428565b60408051938452602084019290925282820152519081900360600190f35b60008054604080516323b872dd60e01b8152336004820152306024820152604481018a905290516060936001600160a01b03909316926323b872dd92606480820193602093909283900390910190829087803b1580156102d957600080fd5b505af11580156102ed573d6000803e3d6000fd5b505050506040513d602081101561030357600080fd5b50506001546000546001600160a01b039182169163a9059cbb9186916103519161032d911661043b565b600154610342906001600160a01b031661043b565b8c91900363ffffffff6104fb16565b6040518363ffffffff1660e01b815260040180836001600160a01b03166001600160a01b0316815260200182815260200192505050602060405180830381600087803b1580156103a057600080fd5b505af11580156103b4573d6000803e3d6000fd5b505050506040513d60208110156103ca57600080fd5b5090979650505050505050565b600080546001600160a01b039384166001600160a01b03199182161790915560018054929093169116179055565b6002546001600160a01b031681565b60008097509795505050505050565b600090565b6000806000985098509895505050505050565b600080826001600160a01b031663313ce5676040518163ffffffff1660e01b815260040160206040518083038186803b15801561047757600080fd5b505afa15801561048b573d6000803e3d6000fd5b505050506040513d60208110156104a157600080fd5b505160ff169050600481108015906104ba575060128111155b6104f55760405162461bcd60e51b81526004018080602001828103825260298152602001806106956029913960400191505060405180910390fd5b92915050565b6000808260000b13156105265761051f83600084900b600a0a63ffffffff61055516565b925061054e565b60008260000b121561054e5761054b836000848103900b600a0a63ffffffff6105b516565b92505b5090919050565b600082610564575060006104f5565b8282028284828161057157fe5b04146105ae5760405162461bcd60e51b81526004018080602001828103825260218152602001806106be6021913960400191505060405180910390fd5b9392505050565b60006105ae83836040518060400160405280601a81526020017f536166654d6174683a206469766973696f6e206279207a65726f0000000000008152506000818361067e5760405162461bcd60e51b81526004018080602001828103825283818151815260200191508051906020019080838360005b8381101561064357818101518382015260200161062b565b50505050905090810190601f1680156106705780820380516001836020036101000a031916815260200191505b509250505060405180910390fd5b50600083858161068a57fe5b049594505050505056fe546f6b656e206d75737420686176652073756666696369656e7420646563696d616c20706c61636573536166654d6174683a206d756c7469706c69636174696f6e206f766572666c6f77a265627a7a72315820017941a7ba9dfc1eb117725a92e9a19edbc17e7424717103a0afcda46f82a05864736f6c634300050b0032",
  "devdoc": {
    "methods": {}
  },
  "userdoc": {
    "methods": {}
  }
}