{
  "address": "0xdB8789a89dF3d4dd821bc85F3941e2269afc3afb",
  "abi": [
    {
      "constant": false,
      "inputs": [
        {
          "internalType": "address",
          "name": "_asset",
          "type": "address"
        },
        {
          "internalType": "uint256",
          "name": "_price",
          "type": "uint256"
        }
      ],
      "name": "setPrice",
      "outputs": [],
      "payable": false,
      "stateMutability": "nonpayable",
      "type": "function"
    },
    {
      "constant": false,
      "inputs": [
        {
          "internalType": "address",
          "name": "_asset",
          "type": "address"
        },
        {
          "internalType": "address",
          "name": "_feed",
          "type": "address"
        }
      ],
      "name": "setFeed",
      "outputs": [],
      "payable": false,
      "stateMutability": "nonpayable",
      "type": "function"
    },
    {
      "constant": true,
      "inputs": [
        {
          "internalType": "address",
          "name": "",
          "type": "address"
        }
      ],
      "name": "assetToPrice",
      "outputs": [
        {
          "internalType": "uint256",
          "name": "",
          "type": "uint256"
        }
      ],
      "payable": false,
      "stateMutability": "view",
      "type": "function"
    },
    {
      "constant": true,
      "inputs": [
        {
          "internalType": "address",
          "name": "asset",
          "type": "address"
        }
      ],
      "name": "price",
      "outputs": [
        {
          "internalType": "uint256",
          "name": "",
          "type": "uint256"
        }
      ],
      "payable": false,
      "stateMutability": "view",
      "type": "function"
    },
    {
      "constant": true,
      "inputs": [
        {
          "internalType": "address",
          "name": "",
          "type": "address"
        }
      ],
      "name": "assetToFeed",
      "outputs": [
        {
          "internalType": "address",
          "name": "",
          "type": "address"
        }
      ],
      "payable": false,
      "stateMutability": "view",
      "type": "function"
    }
  ],
  "transactionHash": "0xc832efa10cdba1e4cd0e552119a402f725d3fb133272518dfc9413b515c11b2a",
  "args": [],
  "solcInputHash": "19f61395f16c024a9cec84b97c17c7b9",
  "bytecode": "0x608060405234801561001057600080fd5b5061021e806100206000396000f3fe608060405234801561001057600080fd5b50600436106100565760003560e01c8062e4768b1461005b57806340b1eb1014610089578063491cd5c9146100b7578063aea91078146100ef578063e6741de214610115575b600080fd5b6100876004803603604081101561007157600080fd5b506001600160a01b038135169060200135610157565b005b6100876004803603604081101561009f57600080fd5b506001600160a01b0381358116916020013516610173565b6100dd600480360360208110156100cd57600080fd5b50356001600160a01b03166101a1565b60408051918252519081900360200190f35b6100dd6004803603602081101561010557600080fd5b50356001600160a01b03166101b3565b61013b6004803603602081101561012b57600080fd5b50356001600160a01b03166101ce565b604080516001600160a01b039092168252519081900360200190f35b6001600160a01b03909116600090815260016020526040902055565b6001600160a01b03918216600090815260208190526040902080546001600160a01b03191691909216179055565b60016020526000908152604090205481565b6001600160a01b031660009081526001602052604090205490565b6000602081905290815260409020546001600160a01b03168156fea265627a7a72315820af1a513d842bfe16c86d36cb40aac053eb12f60003e1d2115af33f51e4a214ac64736f6c634300050b0032",
  "devdoc": {
    "methods": {}
  },
  "userdoc": {
    "methods": {}
  }
}