{
  "address": "0xAFAd2B6c15C946A6Cdc3FcDcf02BCf99AA32241B",
  "abi": [
    {
      "constant": true,
      "inputs": [],
      "name": "registry",
      "outputs": [
        {
          "internalType": "contract IRegistry",
          "name": "",
          "type": "address"
        }
      ],
      "payable": false,
      "stateMutability": "view",
      "type": "function"
    },
    {
      "constant": true,
      "inputs": [
        {
          "internalType": "address",
          "name": "asset",
          "type": "address"
        }
      ],
      "name": "price",
      "outputs": [
        {
          "internalType": "uint256",
          "name": "",
          "type": "uint256"
        }
      ],
      "payable": false,
      "stateMutability": "view",
      "type": "function"
    }
  ],
  "transactionHash": "0x5e2201cf7896ff67ffb4731e0a0f1566fb087930c7d64f0622ae3daac95ac74c",
  "args": [],
  "solcInputHash": "19f61395f16c024a9cec84b97c17c7b9",
  "bytecode": "0x608060405234801561001057600080fd5b50610736806100206000396000f3fe608060405234801561001057600080fd5b50600436106100365760003560e01c80637b1039991461003b578063aea910781461005f575b600080fd5b610043610097565b604080516001600160a01b039092168252519081900360200190f35b6100856004803603602081101561007557600080fd5b50356001600160a01b031661009d565b60408051918252519081900360200190f35b61ce1081565b6000806100a861017f565b9050806001600160a01b0316836001600160a01b031614156100d557670de0b6b3a764000091505061017a565b6100dd610220565b6001600160a01b0316836001600160a01b031614156101375761012f61010282610293565b610123670de0b6b3a764000061011787610293565b9063ffffffff61046516565b9063ffffffff6104c716565b91505061017a565b6040805162461bcd60e51b81526020600482015260136024820152724173736574206e6f7420617661696c61626c6560681b604482015290519081900360640190fd5b919050565b604080516a29ba30b13632aa37b5b2b760a91b6020808301919091528251808303600b018152602b830180855281519183019190912063dcf0aaed60e01b909152602f830152915160009261ce109263dcf0aaed92604f8083019392829003018186803b1580156101ef57600080fd5b505afa158015610203573d6000803e3d6000fd5b505050506040513d602081101561021957600080fd5b5051905090565b604080516d29ba30b13632aa37b5b2b722aaa960911b6020808301919091528251808303600e018152602e830180855281519183019190912063dcf0aaed60e01b9091526032830152915160009261ce109263dcf0aaed9260528083019392829003018186803b1580156101ef57600080fd5b6000806000806102a1610509565b60408051630ef90e1b60e41b81526001600160a01b038881166004830152825193945084169263ef90e1b092602480840193919291829003018186803b1580156102ea57600080fd5b505afa1580156102fe573d6000803e3d6000fd5b505050506040513d604081101561031457600080fd5b50805160209091015190935091508261036a576040805162461bcd60e51b815260206004820152601360248201527205265706f72746564207072696365206973203606c1b604482015290519081900360640190fd5b6000816001600160a01b031663071b48fc876040518263ffffffff1660e01b815260040180826001600160a01b03166001600160a01b0316815260200191505060206040518083038186803b1580156103c257600080fd5b505afa1580156103d6573d6000803e3d6000fd5b505050506040513d60208110156103ec57600080fd5b50519050610258610403428363ffffffff61057b16565b1061043f5760405162461bcd60e51b81526004018080602001828103825260278152602001806106ba6027913960400191505060405180910390fd5b61045b8461012385670de0b6b3a764000063ffffffff61046516565b9695505050505050565b600082610474575060006104c1565b8282028284828161048157fe5b04146104be5760405162461bcd60e51b81526004018080602001828103825260218152602001806106e16021913960400191505060405180910390fd5b90505b92915050565b60006104be83836040518060400160405280601a81526020017f536166654d6174683a206469766973696f6e206279207a65726f0000000000008152506105bd565b604080516c536f727465644f7261636c657360981b6020808301919091528251808303600d018152602d830180855281519183019190912063dcf0aaed60e01b9091526031830152915160009261ce109263dcf0aaed9260518083019392829003018186803b1580156101ef57600080fd5b60006104be83836040518060400160405280601e81526020017f536166654d6174683a207375627472616374696f6e206f766572666c6f77000081525061065f565b600081836106495760405162461bcd60e51b81526004018080602001828103825283818151815260200191508051906020019080838360005b8381101561060e5781810151838201526020016105f6565b50505050905090810190601f16801561063b5780820380516001836020036101000a031916815260200191505b509250505060405180910390fd5b50600083858161065557fe5b0495945050505050565b600081848411156106b15760405162461bcd60e51b815260206004820181815283516024840152835190928392604490910191908501908083836000831561060e5781810151838201526020016105f6565b50505090039056fe5265706f72746564207072696365206973206f6c646572207468616e203130206d696e75746573536166654d6174683a206d756c7469706c69636174696f6e206f766572666c6f77a265627a7a72315820b95d15df4035c3e3c33d7a9550df33fb5744215121e7fceaa259a1095dacccf164736f6c634300050b0032",
  "devdoc": {
    "methods": {
      "price(address)": {
        "params": {
          "asset": "address of the asset"
        },
        "return": "uint256 cUSD price of 1 of the asset, in 18 decimal fixed"
      }
    }
  },
  "userdoc": {
    "methods": {
      "price(address)": {
        "notice": "Returns the total price in 18 digit cUSD for a given asset."
      }
    }
  }
}