{
  "address": "0x4F3871ff02FE9cE6F11EBE0DFBb8720f8b3645A1",
  "abi": [
    {
      "constant": false,
      "inputs": [
        {
          "internalType": "address",
          "name": "_asset",
          "type": "address"
        },
        {
          "internalType": "uint256",
          "name": "_price",
          "type": "uint256"
        }
      ],
      "name": "setPrice",
      "outputs": [],
      "payable": false,
      "stateMutability": "nonpayable",
      "type": "function"
    },
    {
      "constant": false,
      "inputs": [
        {
          "internalType": "address",
          "name": "_asset",
          "type": "address"
        },
        {
          "internalType": "address",
          "name": "_feed",
          "type": "address"
        }
      ],
      "name": "setFeed",
      "outputs": [],
      "payable": false,
      "stateMutability": "nonpayable",
      "type": "function"
    },
    {
      "constant": true,
      "inputs": [
        {
          "internalType": "address",
          "name": "",
          "type": "address"
        }
      ],
      "name": "assetToPrice",
      "outputs": [
        {
          "internalType": "uint256",
          "name": "",
          "type": "uint256"
        }
      ],
      "payable": false,
      "stateMutability": "view",
      "type": "function"
    },
    {
      "constant": true,
      "inputs": [
        {
          "internalType": "address",
          "name": "",
          "type": "address"
        }
      ],
      "name": "assetToFeed",
      "outputs": [
        {
          "internalType": "address",
          "name": "",
          "type": "address"
        }
      ],
      "payable": false,
      "stateMutability": "view",
      "type": "function"
    }
  ],
  "transactionHash": "0xf7ada8fc87f1f323360eebbac2e28bf729b082101544ef35b41358a45ac5389d",
  "args": [],
  "solcInputHash": "42a123be17d7a90d2dc878199b6cae0a",
  "bytecode": "0x608060405234801561001057600080fd5b506101d2806100206000396000f3fe608060405234801561001057600080fd5b506004361061004b5760003560e01c8062e4768b1461005057806340b1eb101461007e578063491cd5c9146100ac578063e6741de2146100e4575b600080fd5b61007c6004803603604081101561006657600080fd5b506001600160a01b038135169060200135610126565b005b61007c6004803603604081101561009457600080fd5b506001600160a01b0381358116916020013516610142565b6100d2600480360360208110156100c257600080fd5b50356001600160a01b0316610170565b60408051918252519081900360200190f35b61010a600480360360208110156100fa57600080fd5b50356001600160a01b0316610182565b604080516001600160a01b039092168252519081900360200190f35b6001600160a01b03909116600090815260016020526040902055565b6001600160a01b03918216600090815260208190526040902080546001600160a01b03191691909216179055565b60016020526000908152604090205481565b6000602081905290815260409020546001600160a01b03168156fea265627a7a72315820ac8df26f20e21d0ecba373a95f310084e477c2de8dcc5a1fedce75f1b253b2a364736f6c634300050b0032",
  "devdoc": {
    "methods": {}
  },
  "userdoc": {
    "methods": {}
  }
}